{
  "contractName": "Booking",
  "abi": [
    {
      "constant": true,
      "inputs": [
        {
          "name": "interfaceId",
          "type": "bytes4"
        }
      ],
      "name": "supportsInterface",
      "outputs": [
        {
          "name": "",
          "type": "bool"
        }
      ],
      "payable": false,
      "stateMutability": "view",
      "type": "function",
      "signature": "0x01ffc9a7"
    },
    {
      "constant": true,
      "inputs": [],
      "name": "name",
      "outputs": [
        {
          "name": "",
          "type": "string"
        }
      ],
      "payable": false,
      "stateMutability": "view",
      "type": "function",
      "signature": "0x06fdde03"
    },
    {
      "constant": true,
      "inputs": [
        {
          "name": "tokenId",
          "type": "uint256"
        }
      ],
      "name": "getApproved",
      "outputs": [
        {
          "name": "",
          "type": "address"
        }
      ],
      "payable": false,
      "stateMutability": "view",
      "type": "function",
      "signature": "0x081812fc"
    },
    {
      "constant": false,
      "inputs": [
        {
          "name": "to",
          "type": "address"
        },
        {
          "name": "tokenId",
          "type": "uint256"
        }
      ],
      "name": "approve",
      "outputs": [],
      "payable": false,
      "stateMutability": "nonpayable",
      "type": "function",
      "signature": "0x095ea7b3"
    },
    {
      "constant": true,
      "inputs": [],
      "name": "totalSupply",
      "outputs": [
        {
          "name": "",
          "type": "uint256"
        }
      ],
      "payable": false,
      "stateMutability": "view",
      "type": "function",
      "signature": "0x18160ddd"
    },
    {
      "constant": true,
      "inputs": [
        {
          "name": "",
          "type": "address"
        },
        {
          "name": "",
          "type": "uint16"
        }
      ],
      "name": "seatCapacity",
      "outputs": [
        {
          "name": "",
          "type": "uint16"
        }
      ],
      "payable": false,
      "stateMutability": "view",
      "type": "function",
      "signature": "0x204aa728"
    },
    {
      "constant": false,
      "inputs": [
        {
          "name": "from",
          "type": "address"
        },
        {
          "name": "to",
          "type": "address"
        },
        {
          "name": "tokenId",
          "type": "uint256"
        }
      ],
      "name": "transferFrom",
      "outputs": [],
      "payable": false,
      "stateMutability": "nonpayable",
      "type": "function",
      "signature": "0x23b872dd"
    },
    {
      "constant": true,
      "inputs": [
        {
          "name": "",
          "type": "uint256"
        }
      ],
      "name": "reservesInfo",
      "outputs": [
        {
          "name": "id",
          "type": "uint256"
        },
        {
          "name": "restaurant",
          "type": "address"
        },
        {
          "name": "seatNum",
          "type": "uint16"
        },
        {
          "name": "yaerAndMonth",
          "type": "uint32"
        },
        {
          "name": "time",
          "type": "uint32"
        },
        {
          "name": "cost",
          "type": "uint256"
        }
      ],
      "payable": false,
      "stateMutability": "view",
      "type": "function",
      "signature": "0x2adee1c7"
    },
    {
      "constant": true,
      "inputs": [
        {
          "name": "owner",
          "type": "address"
        },
        {
          "name": "index",
          "type": "uint256"
        }
      ],
      "name": "tokenOfOwnerByIndex",
      "outputs": [
        {
          "name": "",
          "type": "uint256"
        }
      ],
      "payable": false,
      "stateMutability": "view",
      "type": "function",
      "signature": "0x2f745c59"
    },
    {
      "constant": false,
      "inputs": [
        {
          "name": "from",
          "type": "address"
        },
        {
          "name": "to",
          "type": "address"
        },
        {
          "name": "tokenId",
          "type": "uint256"
        }
      ],
      "name": "safeTransferFrom",
      "outputs": [],
      "payable": false,
      "stateMutability": "nonpayable",
      "type": "function",
      "signature": "0x42842e0e"
    },
    {
      "constant": true,
      "inputs": [
        {
          "name": "index",
          "type": "uint256"
        }
      ],
      "name": "tokenByIndex",
      "outputs": [
        {
          "name": "",
          "type": "uint256"
        }
      ],
      "payable": false,
      "stateMutability": "view",
      "type": "function",
      "signature": "0x4f6ccce7"
    },
    {
      "constant": true,
      "inputs": [
        {
          "name": "tokenId",
          "type": "uint256"
        }
      ],
      "name": "ownerOf",
      "outputs": [
        {
          "name": "",
          "type": "address"
        }
      ],
      "payable": false,
      "stateMutability": "view",
      "type": "function",
      "signature": "0x6352211e"
    },
    {
      "constant": true,
      "inputs": [
        {
          "name": "owner",
          "type": "address"
        }
      ],
      "name": "balanceOf",
      "outputs": [
        {
          "name": "",
          "type": "uint256"
        }
      ],
      "payable": false,
      "stateMutability": "view",
      "type": "function",
      "signature": "0x70a08231"
    },
    {
      "constant": false,
      "inputs": [],
      "name": "renounceOwnership",
      "outputs": [],
      "payable": false,
      "stateMutability": "nonpayable",
      "type": "function",
      "signature": "0x715018a6"
    },
    {
      "constant": true,
      "inputs": [],
      "name": "owner",
      "outputs": [
        {
          "name": "",
          "type": "address"
        }
      ],
      "payable": false,
      "stateMutability": "view",
      "type": "function",
      "signature": "0x8da5cb5b"
    },
    {
      "constant": true,
      "inputs": [],
      "name": "isOwner",
      "outputs": [
        {
          "name": "",
          "type": "bool"
        }
      ],
      "payable": false,
      "stateMutability": "view",
      "type": "function",
      "signature": "0x8f32d59b"
    },
    {
      "constant": true,
      "inputs": [],
      "name": "symbol",
      "outputs": [
        {
          "name": "",
          "type": "string"
        }
      ],
      "payable": false,
      "stateMutability": "view",
      "type": "function",
      "signature": "0x95d89b41"
    },
    {
      "constant": false,
      "inputs": [
        {
          "name": "to",
          "type": "address"
        },
        {
          "name": "approved",
          "type": "bool"
        }
      ],
      "name": "setApprovalForAll",
      "outputs": [],
      "payable": false,
      "stateMutability": "nonpayable",
      "type": "function",
      "signature": "0xa22cb465"
    },
    {
      "constant": false,
      "inputs": [
        {
          "name": "from",
          "type": "address"
        },
        {
          "name": "to",
          "type": "address"
        },
        {
          "name": "tokenId",
          "type": "uint256"
        },
        {
          "name": "_data",
          "type": "bytes"
        }
      ],
      "name": "safeTransferFrom",
      "outputs": [],
      "payable": false,
      "stateMutability": "nonpayable",
      "type": "function",
      "signature": "0xb88d4fde"
    },
    {
      "constant": true,
      "inputs": [
        {
          "name": "tokenId",
          "type": "uint256"
        }
      ],
      "name": "tokenURI",
      "outputs": [
        {
          "name": "",
          "type": "string"
        }
      ],
      "payable": false,
      "stateMutability": "view",
      "type": "function",
      "signature": "0xc87b56dd"
    },
    {
      "constant": true,
      "inputs": [
        {
          "name": "owner",
          "type": "address"
        },
        {
          "name": "operator",
          "type": "address"
        }
      ],
      "name": "isApprovedForAll",
      "outputs": [
        {
          "name": "",
          "type": "bool"
        }
      ],
      "payable": false,
      "stateMutability": "view",
      "type": "function",
      "signature": "0xe985e9c5"
    },
    {
      "constant": false,
      "inputs": [
        {
          "name": "newOwner",
          "type": "address"
        }
      ],
      "name": "transferOwnership",
      "outputs": [],
      "payable": false,
      "stateMutability": "nonpayable",
      "type": "function",
      "signature": "0xf2fde38b"
    },
    {
      "inputs": [
        {
          "name": "name",
          "type": "string"
        },
        {
          "name": "symbol",
          "type": "string"
        }
      ],
      "payable": false,
      "stateMutability": "nonpayable",
      "type": "constructor",
      "signature": "constructor"
    },
    {
      "anonymous": false,
      "inputs": [
        {
          "indexed": true,
          "name": "previousOwner",
          "type": "address"
        },
        {
          "indexed": true,
          "name": "newOwner",
          "type": "address"
        }
      ],
      "name": "OwnershipTransferred",
      "type": "event",
      "signature": "0x8be0079c531659141344cd1fd0a4f28419497f9722a3daafe3b4186f6b6457e0"
    },
    {
      "anonymous": false,
      "inputs": [
        {
          "indexed": true,
          "name": "from",
          "type": "address"
        },
        {
          "indexed": true,
          "name": "to",
          "type": "address"
        },
        {
          "indexed": true,
          "name": "tokenId",
          "type": "uint256"
        }
      ],
      "name": "Transfer",
      "type": "event",
      "signature": "0xddf252ad1be2c89b69c2b068fc378daa952ba7f163c4a11628f55a4df523b3ef"
    },
    {
      "anonymous": false,
      "inputs": [
        {
          "indexed": true,
          "name": "owner",
          "type": "address"
        },
        {
          "indexed": true,
          "name": "approved",
          "type": "address"
        },
        {
          "indexed": true,
          "name": "tokenId",
          "type": "uint256"
        }
      ],
      "name": "Approval",
      "type": "event",
      "signature": "0x8c5be1e5ebec7d5bd14f71427d1e84f3dd0314c0f7b2291e5b200ac8c7c3b925"
    },
    {
      "anonymous": false,
      "inputs": [
        {
          "indexed": true,
          "name": "owner",
          "type": "address"
        },
        {
          "indexed": true,
          "name": "operator",
          "type": "address"
        },
        {
          "indexed": false,
          "name": "approved",
          "type": "bool"
        }
      ],
      "name": "ApprovalForAll",
      "type": "event",
      "signature": "0x17307eab39ab6107e8899845ad3d59bd9653f200f220920489ca2b5937696c31"
    },
    {
      "constant": false,
      "inputs": [
        {
          "name": "_resutaurantAddress",
          "type": "address"
        },
        {
          "name": "_seatNum",
          "type": "uint16"
        },
        {
          "name": "_yaerAndMonth",
          "type": "uint32"
        },
        {
          "name": "_time",
          "type": "uint32"
        },
        {
          "name": "_cost",
          "type": "uint256"
        }
      ],
      "name": "registerSeat",
      "outputs": [],
      "payable": false,
      "stateMutability": "nonpayable",
      "type": "function",
      "signature": "0x18190afe"
    },
    {
      "constant": false,
      "inputs": [
        {
          "name": "_to",
          "type": "address"
        },
        {
          "name": "tokenId",
          "type": "uint256"
        },
        {
          "name": "ethAmount",
          "type": "uint256"
        }
      ],
      "name": "sell",
      "outputs": [],
      "payable": false,
      "stateMutability": "nonpayable",
      "type": "function",
      "signature": "0x6a272462"
    },
    {
      "constant": true,
      "inputs": [
        {
          "name": "_seatNum",
          "type": "uint16"
        },
        {
          "name": "_yaerAndMonth",
          "type": "uint32"
        },
        {
          "name": "_time",
          "type": "uint32"
        }
      ],
      "name": "getoneMonthSeatInfo",
      "outputs": [
        {
          "components": [
            {
              "name": "id",
              "type": "uint256"
            },
            {
              "name": "restaurant",
              "type": "address"
            },
            {
              "name": "seatNum",
              "type": "uint16"
            },
            {
              "name": "yaerAndMonth",
              "type": "uint32"
            },
            {
              "name": "time",
              "type": "uint32"
            },
            {
              "name": "cost",
              "type": "uint256"
            }
          ],
          "name": "",
          "type": "tuple"
        }
      ],
      "payable": false,
      "stateMutability": "view",
      "type": "function",
      "signature": "0x2836a79b"
    },
    {
      "constant": false,
      "inputs": [
        {
          "name": "_restaurant",
          "type": "address"
        },
        {
          "name": "_seatNum",
          "type": "uint16"
        },
        {
          "name": "_capacity",
          "type": "uint16"
        }
      ],
      "name": "createSeat",
      "outputs": [],
      "payable": false,
      "stateMutability": "nonpayable",
      "type": "function",
      "signature": "0x35fc0488"
    },
    {
      "constant": true,
      "inputs": [
        {
          "name": "_restaurant",
          "type": "address"
        },
        {
          "name": "_seatNum",
          "type": "uint16"
        }
      ],
      "name": "getSeatCapacity",
      "outputs": [
        {
          "name": "",
          "type": "uint16"
        }
      ],
      "payable": false,
      "stateMutability": "view",
      "type": "function",
      "signature": "0xe30321f1"
    }
  ],
  "bytecode": "0x6080604052600160105560006011553480156200001b57600080fd5b5060405162003d3838038062003d38833981018060405262000041919081019062000438565b81818181620000826301ffc9a77c01000000000000000000000000000000000000000000000000000000000262000235640100000000026401000000009004565b620000bf6380ac58cd7c01000000000000000000000000000000000000000000000000000000000262000235640100000000026401000000009004565b620000fc63780e9d637c01000000000000000000000000000000000000000000000000000000000262000235640100000000026401000000009004565b8160099080519060200190620001149291906200032b565b5080600a90805190602001906200012d9291906200032b565b506200016b635b5e139f7c01000000000000000000000000000000000000000000000000000000000262000235640100000000026401000000009004565b5050505033600c60006101000a81548173ffffffffffffffffffffffffffffffffffffffff021916908373ffffffffffffffffffffffffffffffffffffffff160217905550600c60009054906101000a900473ffffffffffffffffffffffffffffffffffffffff1673ffffffffffffffffffffffffffffffffffffffff16600073ffffffffffffffffffffffffffffffffffffffff167f8be0079c531659141344cd1fd0a4f28419497f9722a3daafe3b4186f6b6457e060405160405180910390a3505062000595565b63ffffffff7c010000000000000000000000000000000000000000000000000000000002817bffffffffffffffffffffffffffffffffffffffffffffffffffffffff191614151515620002bf576040517f08c379a0000000000000000000000000000000000000000000000000000000008152600401620002b690620004e2565b60405180910390fd5b6001600080837bffffffffffffffffffffffffffffffffffffffffffffffffffffffff19167bffffffffffffffffffffffffffffffffffffffffffffffffffffffff1916815260200190815260200160002060006101000a81548160ff02191690831515021790555050565b828054600181600116156101000203166002900490600052602060002090601f016020900481019282601f106200036e57805160ff19168380011785556200039f565b828001600101855582156200039f579182015b828111156200039e57825182559160200191906001019062000381565b5b509050620003ae9190620003b2565b5090565b620003d791905b80821115620003d3576000816000905550600101620003b9565b5090565b90565b600082601f8301121515620003ee57600080fd5b815162000405620003ff8262000532565b62000504565b915080825260208301602083018583830111156200042257600080fd5b6200042f8382846200055f565b50505092915050565b600080604083850312156200044c57600080fd5b600083015167ffffffffffffffff8111156200046757600080fd5b6200047585828601620003da565b925050602083015167ffffffffffffffff8111156200049357600080fd5b620004a185828601620003da565b9150509250929050565b6000601c82527f4552433136353a20696e76616c696420696e74657266616365206964000000006020830152604082019050919050565b60006020820190508181036000830152620004fd81620004ab565b9050919050565b6000604051905081810181811067ffffffffffffffff821117156200052857600080fd5b8060405250919050565b600067ffffffffffffffff8211156200054a57600080fd5b601f19601f8301169050602081019050919050565b60005b838110156200057f57808201518184015260208101905062000562565b838111156200058f576000848401525b50505050565b61379380620005a56000396000f3fe60806040526004361061015f576000357c0100000000000000000000000000000000000000000000000000000000900463ffffffff16806301ffc9a71461016457806306fdde03146101a1578063081812fc146101cc578063095ea7b31461020957806318160ddd1461023257806318190afe1461025d578063204aa7281461028657806323b872dd146102c35780632836a79b146102ec5780632adee1c7146103295780632f745c591461036b57806335fc0488146103a857806342842e0e146103d15780634f6ccce7146103fa5780636352211e146104375780636a2724621461047457806370a082311461049d578063715018a6146104da5780638da5cb5b146104f15780638f32d59b1461051c57806395d89b4114610547578063a22cb46514610572578063b88d4fde1461059b578063c87b56dd146105c4578063e30321f114610601578063e985e9c51461063e578063f2fde38b1461067b575b600080fd5b34801561017057600080fd5b5061018b60048036036101869190810190612968565b6106a4565b6040516101989190613203565b60405180910390f35b3480156101ad57600080fd5b506101b661070b565b6040516101c3919061321e565b60405180910390f35b3480156101d857600080fd5b506101f360048036036101ee9190810190612a09565b6107ad565b604051610200919061319c565b60405180910390f35b34801561021557600080fd5b50610230600480360361022b91908101906128dd565b610834565b005b34801561023e57600080fd5b506102476109e5565b604051610254919061350d565b60405180910390f35b34801561026957600080fd5b50610284600480360361027f9190810190612866565b6109f2565b005b34801561029257600080fd5b506102ad60048036036102a891908101906127db565b610cd4565b6040516102ba91906134bb565b60405180910390f35b3480156102cf57600080fd5b506102ea60048036036102e591908101906126d5565b610d04565b005b3480156102f857600080fd5b50610313600480360361030e91908101906129ba565b610d5f565b60405161032091906134a0565b60405180910390f35b34801561033557600080fd5b50610350600480360361034b9190810190612a09565b610e8f565b60405161036296959493929190613528565b60405180910390f35b34801561037757600080fd5b50610392600480360361038d91908101906128dd565b610f28565b60405161039f919061350d565b60405180910390f35b3480156103b457600080fd5b506103cf60048036036103ca9190810190612817565b610fd5565b005b3480156103dd57600080fd5b506103f860048036036103f391908101906126d5565b61104d565b005b34801561040657600080fd5b50610421600480360361041c9190810190612a09565b61106e565b60405161042e919061350d565b60405180910390f35b34801561044357600080fd5b5061045e60048036036104599190810190612a09565b6110dc565b60405161046b919061319c565b60405180910390f35b34801561048057600080fd5b5061049b60048036036104969190810190612919565b611190565b005b3480156104a957600080fd5b506104c460048036036104bf9190810190612670565b6111a0565b6040516104d1919061350d565b60405180910390f35b3480156104e657600080fd5b506104ef611261565b005b3480156104fd57600080fd5b5061050661136b565b604051610513919061319c565b60405180910390f35b34801561052857600080fd5b50610531611395565b60405161053e9190613203565b60405180910390f35b34801561055357600080fd5b5061055c6113ed565b604051610569919061321e565b60405180910390f35b34801561057e57600080fd5b506105996004803603610594919081019061279f565b61148f565b005b3480156105a757600080fd5b506105c260048036036105bd9190810190612724565b6115fd565b005b3480156105d057600080fd5b506105eb60048036036105e69190810190612a09565b61165b565b6040516105f8919061321e565b60405180910390f35b34801561060d57600080fd5b50610628600480360361062391908101906127db565b61175a565b60405161063591906134bb565b60405180910390f35b34801561064a57600080fd5b5061066560048036036106609190810190612699565b6117cb565b6040516106729190613203565b60405180910390f35b34801561068757600080fd5b506106a2600480360361069d9190810190612670565b61185f565b005b6000806000837bffffffffffffffffffffffffffffffffffffffffffffffffffffffff19167bffffffffffffffffffffffffffffffffffffffffffffffffffffffff1916815260200190815260200160002060009054906101000a900460ff169050919050565b606060098054600181600116156101000203166002900480601f0160208091040260200160405190810160405280929190818152602001828054600181600116156101000203166002900480156107a35780601f10610778576101008083540402835291602001916107a3565b820191906000526020600020905b81548152906001019060200180831161078657829003601f168201915b5050505050905090565b60006107b8826118b4565b15156107f9576040517f08c379a00000000000000000000000000000000000000000000000000000000081526004016107f0906133c0565b60405180910390fd5b6002600083815260200190815260200160002060009054906101000a900473ffffffffffffffffffffffffffffffffffffffff169050919050565b600061083f826110dc565b90508073ffffffffffffffffffffffffffffffffffffffff168373ffffffffffffffffffffffffffffffffffffffff16141515156108b2576040517f08c379a00000000000000000000000000000000000000000000000000000000081526004016108a990613440565b60405180910390fd5b8073ffffffffffffffffffffffffffffffffffffffff163373ffffffffffffffffffffffffffffffffffffffff1614806108f257506108f181336117cb565b5b1515610933576040517f08c379a000000000000000000000000000000000000000000000000000000000815260040161092a90613340565b60405180910390fd5b826002600084815260200190815260200160002060006101000a81548173ffffffffffffffffffffffffffffffffffffffff021916908373ffffffffffffffffffffffffffffffffffffffff160217905550818373ffffffffffffffffffffffffffffffffffffffff168273ffffffffffffffffffffffffffffffffffffffff167f8c5be1e5ebec7d5bd14f71427d1e84f3dd0314c0f7b2291e5b200ac8c7c3b92560405160405180910390a4505050565b6000600780549050905090565b6109fe33601054611926565b600d60c06040519081016040528060105481526020018773ffffffffffffffffffffffffffffffffffffffff1681526020018661ffff1681526020018563ffffffff1681526020018463ffffffff16815260200183815250908060018154018082558091505090600182039060005260206000209060030201600090919290919091506000820151816000015560208201518160010160006101000a81548173ffffffffffffffffffffffffffffffffffffffff021916908373ffffffffffffffffffffffffffffffffffffffff16021790555060408201518160010160146101000a81548161ffff021916908361ffff16021790555060608201518160010160166101000a81548163ffffffff021916908363ffffffff160217905550608082015181600101601a6101000a81548163ffffffff021916908363ffffffff16021790555060a08201518160020155505050838383604051602001610b65939291906134d6565b6040516020818303038152906040528051906020012060118190555060c06040519081016040528060105481526020018673ffffffffffffffffffffffffffffffffffffffff1681526020018561ffff1681526020018463ffffffff1681526020018363ffffffff16815260200182815250600e600060115481526020019081526020016000206000820151816000015560208201518160010160006101000a81548173ffffffffffffffffffffffffffffffffffffffff021916908373ffffffffffffffffffffffffffffffffffffffff16021790555060408201518160010160146101000a81548161ffff021916908361ffff16021790555060608201518160010160166101000a81548163ffffffff021916908363ffffffff160217905550608082015181600101601a6101000a81548163ffffffff021916908363ffffffff16021790555060a082015181600201559050506010600081548092919060010191905055505050505050565b600f6020528160005260406000206020528060005260406000206000915091509054906101000a900461ffff1681565b610d0e3382611947565b1515610d4f576040517f08c379a0000000000000000000000000000000000000000000000000000000008152600401610d4690613460565b60405180910390fd5b610d5a838383611a27565b505050565b610d676124e0565b600e6000858585604051602001610d80939291906134d6565b60405160208183030381529060405280519060200120815260200190815260200160002060c06040519081016040529081600082015481526020016001820160009054906101000a900473ffffffffffffffffffffffffffffffffffffffff1673ffffffffffffffffffffffffffffffffffffffff1673ffffffffffffffffffffffffffffffffffffffff1681526020016001820160149054906101000a900461ffff1661ffff1661ffff1681526020016001820160169054906101000a900463ffffffff1663ffffffff1663ffffffff16815260200160018201601a9054906101000a900463ffffffff1663ffffffff1663ffffffff16815260200160028201548152505090509392505050565b600d81815481101515610e9e57fe5b90600052602060002090600302016000915090508060000154908060010160009054906101000a900473ffffffffffffffffffffffffffffffffffffffff16908060010160149054906101000a900461ffff16908060010160169054906101000a900463ffffffff169080600101601a9054906101000a900463ffffffff16908060020154905086565b6000610f33836111a0565b82101515610f76576040517f08c379a0000000000000000000000000000000000000000000000000000000008152600401610f6d90613240565b60405180910390fd5b600560008473ffffffffffffffffffffffffffffffffffffffff1673ffffffffffffffffffffffffffffffffffffffff16815260200190815260200160002082815481101515610fc257fe5b9060005260206000200154905092915050565b80600f60008573ffffffffffffffffffffffffffffffffffffffff1673ffffffffffffffffffffffffffffffffffffffff16815260200190815260200160002060008461ffff1661ffff16815260200190815260200160002060006101000a81548161ffff021916908361ffff160217905550505050565b61106983838360206040519081016040528060008152506115fd565b505050565b60006110786109e5565b821015156110bb576040517f08c379a00000000000000000000000000000000000000000000000000000000081526004016110b290613480565b60405180910390fd5b6007828154811015156110ca57fe5b90600052602060002001549050919050565b6000806001600084815260200190815260200160002060009054906101000a900473ffffffffffffffffffffffffffffffffffffffff169050600073ffffffffffffffffffffffffffffffffffffffff168173ffffffffffffffffffffffffffffffffffffffff1614151515611187576040517f08c379a000000000000000000000000000000000000000000000000000000000815260040161117e90613380565b60405180910390fd5b80915050919050565b61119b338484610d04565b505050565b60008073ffffffffffffffffffffffffffffffffffffffff168273ffffffffffffffffffffffffffffffffffffffff1614151515611213576040517f08c379a000000000000000000000000000000000000000000000000000000000815260040161120a90613360565b60405180910390fd5b61125a600360008473ffffffffffffffffffffffffffffffffffffffff1673ffffffffffffffffffffffffffffffffffffffff168152602001908152602001600020611a4b565b9050919050565b611269611395565b15156112aa576040517f08c379a00000000000000000000000000000000000000000000000000000000081526004016112a1906133e0565b60405180910390fd5b600073ffffffffffffffffffffffffffffffffffffffff16600c60009054906101000a900473ffffffffffffffffffffffffffffffffffffffff1673ffffffffffffffffffffffffffffffffffffffff167f8be0079c531659141344cd1fd0a4f28419497f9722a3daafe3b4186f6b6457e060405160405180910390a36000600c60006101000a81548173ffffffffffffffffffffffffffffffffffffffff021916908373ffffffffffffffffffffffffffffffffffffffff160217905550565b6000600c60009054906101000a900473ffffffffffffffffffffffffffffffffffffffff16905090565b6000600c60009054906101000a900473ffffffffffffffffffffffffffffffffffffffff1673ffffffffffffffffffffffffffffffffffffffff163373ffffffffffffffffffffffffffffffffffffffff1614905090565b6060600a8054600181600116156101000203166002900480601f0160208091040260200160405190810160405280929190818152602001828054600181600116156101000203166002900480156114855780601f1061145a57610100808354040283529160200191611485565b820191906000526020600020905b81548152906001019060200180831161146857829003601f168201915b5050505050905090565b3373ffffffffffffffffffffffffffffffffffffffff168273ffffffffffffffffffffffffffffffffffffffff1614151515611500576040517f08c379a00000000000000000000000000000000000000000000000000000000081526004016114f7906132e0565b60405180910390fd5b80600460003373ffffffffffffffffffffffffffffffffffffffff1673ffffffffffffffffffffffffffffffffffffffff16815260200190815260200160002060008473ffffffffffffffffffffffffffffffffffffffff1673ffffffffffffffffffffffffffffffffffffffff16815260200190815260200160002060006101000a81548160ff0219169083151502179055508173ffffffffffffffffffffffffffffffffffffffff163373ffffffffffffffffffffffffffffffffffffffff167f17307eab39ab6107e8899845ad3d59bd9653f200f220920489ca2b5937696c31836040516115f19190613203565b60405180910390a35050565b611608848484610d04565b61161484848484611a59565b1515611655576040517f08c379a000000000000000000000000000000000000000000000000000000000815260040161164c90613260565b60405180910390fd5b50505050565b6060611666826118b4565b15156116a7576040517f08c379a000000000000000000000000000000000000000000000000000000000815260040161169e90613420565b60405180910390fd5b600b60008381526020019081526020016000208054600181600116156101000203166002900480601f01602080910402602001604051908101604052809291908181526020018280546001816001161561010002031660029004801561174e5780601f106117235761010080835404028352916020019161174e565b820191906000526020600020905b81548152906001019060200180831161173157829003601f168201915b50505050509050919050565b6000600f60008473ffffffffffffffffffffffffffffffffffffffff1673ffffffffffffffffffffffffffffffffffffffff16815260200190815260200160002060008361ffff1661ffff16815260200190815260200160002060009054906101000a900461ffff16905092915050565b6000600460008473ffffffffffffffffffffffffffffffffffffffff1673ffffffffffffffffffffffffffffffffffffffff16815260200190815260200160002060008373ffffffffffffffffffffffffffffffffffffffff1673ffffffffffffffffffffffffffffffffffffffff16815260200190815260200160002060009054906101000a900460ff16905092915050565b611867611395565b15156118a8576040517f08c379a000000000000000000000000000000000000000000000000000000000815260040161189f906133e0565b60405180910390fd5b6118b181611baa565b50565b6000806001600084815260200190815260200160002060009054906101000a900473ffffffffffffffffffffffffffffffffffffffff169050600073ffffffffffffffffffffffffffffffffffffffff168173ffffffffffffffffffffffffffffffffffffffff161415915050919050565b6119308282611cdc565b61193a8282611e92565b61194381611f59565b5050565b6000611952826118b4565b1515611993576040517f08c379a000000000000000000000000000000000000000000000000000000000815260040161198a90613320565b60405180910390fd5b600061199e836110dc565b90508073ffffffffffffffffffffffffffffffffffffffff168473ffffffffffffffffffffffffffffffffffffffff161480611a0d57508373ffffffffffffffffffffffffffffffffffffffff166119f5846107ad565b73ffffffffffffffffffffffffffffffffffffffff16145b80611a1e5750611a1d81856117cb565b5b91505092915050565b611a32838383611fa5565b611a3c83826121d8565b611a468282611e92565b505050565b600081600001549050919050565b6000611a7a8473ffffffffffffffffffffffffffffffffffffffff1661237c565b1515611a895760019050611ba2565b60008473ffffffffffffffffffffffffffffffffffffffff1663150b7a02338887876040518563ffffffff167c0100000000000000000000000000000000000000000000000000000000028152600401611ae694939291906131b7565b602060405180830381600087803b158015611b0057600080fd5b505af1158015611b14573d6000803e3d6000fd5b505050506040513d601f19601f82011682018060405250611b389190810190612991565b905063150b7a027c0100000000000000000000000000000000000000000000000000000000027bffffffffffffffffffffffffffffffffffffffffffffffffffffffff1916817bffffffffffffffffffffffffffffffffffffffffffffffffffffffff1916149150505b949350505050565b600073ffffffffffffffffffffffffffffffffffffffff168173ffffffffffffffffffffffffffffffffffffffff1614151515611c1c576040517f08c379a0000000000000000000000000000000000000000000000000000000008152600401611c1390613280565b60405180910390fd5b8073ffffffffffffffffffffffffffffffffffffffff16600c60009054906101000a900473ffffffffffffffffffffffffffffffffffffffff1673ffffffffffffffffffffffffffffffffffffffff167f8be0079c531659141344cd1fd0a4f28419497f9722a3daafe3b4186f6b6457e060405160405180910390a380600c60006101000a81548173ffffffffffffffffffffffffffffffffffffffff021916908373ffffffffffffffffffffffffffffffffffffffff16021790555050565b600073ffffffffffffffffffffffffffffffffffffffff168273ffffffffffffffffffffffffffffffffffffffff1614151515611d4e576040517f08c379a0000000000000000000000000000000000000000000000000000000008152600401611d45906133a0565b60405180910390fd5b611d57816118b4565b151515611d99576040517f08c379a0000000000000000000000000000000000000000000000000000000008152600401611d90906132a0565b60405180910390fd5b816001600083815260200190815260200160002060006101000a81548173ffffffffffffffffffffffffffffffffffffffff021916908373ffffffffffffffffffffffffffffffffffffffff160217905550611e32600360008473ffffffffffffffffffffffffffffffffffffffff1673ffffffffffffffffffffffffffffffffffffffff16815260200190815260200160002061238f565b808273ffffffffffffffffffffffffffffffffffffffff16600073ffffffffffffffffffffffffffffffffffffffff167fddf252ad1be2c89b69c2b068fc378daa952ba7f163c4a11628f55a4df523b3ef60405160405180910390a45050565b600560008373ffffffffffffffffffffffffffffffffffffffff1673ffffffffffffffffffffffffffffffffffffffff168152602001908152602001600020805490506006600083815260200190815260200160002081905550600560008373ffffffffffffffffffffffffffffffffffffffff1673ffffffffffffffffffffffffffffffffffffffff1681526020019081526020016000208190806001815401808255809150509060018203906000526020600020016000909192909190915055505050565b6007805490506008600083815260200190815260200160002081905550600781908060018154018082558091505090600182039060005260206000200160009091929091909150555050565b8273ffffffffffffffffffffffffffffffffffffffff16611fc5826110dc565b73ffffffffffffffffffffffffffffffffffffffff1614151561201d576040517f08c379a000000000000000000000000000000000000000000000000000000000815260040161201490613400565b60405180910390fd5b600073ffffffffffffffffffffffffffffffffffffffff168273ffffffffffffffffffffffffffffffffffffffff161415151561208f576040517f08c379a0000000000000000000000000000000000000000000000000000000008152600401612086906132c0565b60405180910390fd5b612098816123a5565b6120df600360008573ffffffffffffffffffffffffffffffffffffffff1673ffffffffffffffffffffffffffffffffffffffff168152602001908152602001600020612465565b612126600360008473ffffffffffffffffffffffffffffffffffffffff1673ffffffffffffffffffffffffffffffffffffffff16815260200190815260200160002061238f565b816001600083815260200190815260200160002060006101000a81548173ffffffffffffffffffffffffffffffffffffffff021916908373ffffffffffffffffffffffffffffffffffffffff160217905550808273ffffffffffffffffffffffffffffffffffffffff168473ffffffffffffffffffffffffffffffffffffffff167fddf252ad1be2c89b69c2b068fc378daa952ba7f163c4a11628f55a4df523b3ef60405160405180910390a4505050565b60006122306001600560008673ffffffffffffffffffffffffffffffffffffffff1673ffffffffffffffffffffffffffffffffffffffff1681526020019081526020016000208054905061248890919063ffffffff16565b90506000600660008481526020019081526020016000205490508181141515612323576000600560008673ffffffffffffffffffffffffffffffffffffffff1673ffffffffffffffffffffffffffffffffffffffff168152602001908152602001600020838154811015156122a157fe5b9060005260206000200154905080600560008773ffffffffffffffffffffffffffffffffffffffff1673ffffffffffffffffffffffffffffffffffffffff168152602001908152602001600020838154811015156122fb57fe5b9060005260206000200181905550816006600083815260200190815260200160002081905550505b600560008573ffffffffffffffffffffffffffffffffffffffff1673ffffffffffffffffffffffffffffffffffffffff168152602001908152602001600020805480919060019003612375919061253d565b5050505050565b600080823b905060008111915050919050565b6001816000016000828254019250508190555050565b600073ffffffffffffffffffffffffffffffffffffffff166002600083815260200190815260200160002060009054906101000a900473ffffffffffffffffffffffffffffffffffffffff1673ffffffffffffffffffffffffffffffffffffffff161415156124625760006002600083815260200190815260200160002060006101000a81548173ffffffffffffffffffffffffffffffffffffffff021916908373ffffffffffffffffffffffffffffffffffffffff1602179055505b50565b61247d6001826000015461248890919063ffffffff16565b816000018190555050565b60008282111515156124cf576040517f08c379a00000000000000000000000000000000000000000000000000000000081526004016124c690613300565b60405180910390fd5b600082840390508091505092915050565b60c06040519081016040528060008152602001600073ffffffffffffffffffffffffffffffffffffffff168152602001600061ffff168152602001600063ffffffff168152602001600063ffffffff168152602001600081525090565b815481835581811115612564578183600052602060002091820191016125639190612569565b5b505050565b61258b91905b8082111561258757600081600090555060010161256f565b5090565b90565b600061259a823561365e565b905092915050565b60006125ae8235613670565b905092915050565b60006125c2823561367c565b905092915050565b60006125d6825161367c565b905092915050565b600082601f83011215156125f157600080fd5b81356126046125ff826135b6565b613589565b9150808252602083016020830185838301111561262057600080fd5b61262b838284613706565b50505092915050565b600061264082356136a8565b905092915050565b600061265482356136b6565b905092915050565b600061266882356136c0565b905092915050565b60006020828403121561268257600080fd5b60006126908482850161258e565b91505092915050565b600080604083850312156126ac57600080fd5b60006126ba8582860161258e565b92505060206126cb8582860161258e565b9150509250929050565b6000806000606084860312156126ea57600080fd5b60006126f88682870161258e565b93505060206127098682870161258e565b925050604061271a86828701612648565b9150509250925092565b6000806000806080858703121561273a57600080fd5b60006127488782880161258e565b94505060206127598782880161258e565b935050604061276a87828801612648565b925050606085013567ffffffffffffffff81111561278757600080fd5b612793878288016125de565b91505092959194509250565b600080604083850312156127b257600080fd5b60006127c08582860161258e565b92505060206127d1858286016125a2565b9150509250929050565b600080604083850312156127ee57600080fd5b60006127fc8582860161258e565b925050602061280d85828601612634565b9150509250929050565b60008060006060848603121561282c57600080fd5b600061283a8682870161258e565b935050602061284b86828701612634565b925050604061285c86828701612634565b9150509250925092565b600080600080600060a0868803121561287e57600080fd5b600061288c8882890161258e565b955050602061289d88828901612634565b94505060406128ae8882890161265c565b93505060606128bf8882890161265c565b92505060806128d088828901612648565b9150509295509295909350565b600080604083850312156128f057600080fd5b60006128fe8582860161258e565b925050602061290f85828601612648565b9150509250929050565b60008060006060848603121561292e57600080fd5b600061293c8682870161258e565b935050602061294d86828701612648565b925050604061295e86828701612648565b9150509250925092565b60006020828403121561297a57600080fd5b6000612988848285016125b6565b91505092915050565b6000602082840312156129a357600080fd5b60006129b1848285016125ca565b91505092915050565b6000806000606084860312156129cf57600080fd5b60006129dd86828701612634565b93505060206129ee8682870161265c565b92505060406129ff8682870161265c565b9150509250925092565b600060208284031215612a1b57600080fd5b6000612a2984828501612648565b91505092915050565b612a3b816136d0565b82525050565b612a4a816135f8565b82525050565b612a598161360a565b82525050565b6000612a6a826135e2565b808452612a7e816020860160208601613715565b612a8781613748565b602085010191505092915050565b6000612aa0826135ed565b808452612ab4816020860160208601613715565b612abd81613748565b602085010191505092915050565b6000602b82527f455243373231456e756d657261626c653a206f776e657220696e646578206f7560208301527f74206f6620626f756e64730000000000000000000000000000000000000000006040830152606082019050919050565b6000603282527f4552433732313a207472616e7366657220746f206e6f6e20455243373231526560208301527f63656976657220696d706c656d656e74657200000000000000000000000000006040830152606082019050919050565b6000602682527f4f776e61626c653a206e6577206f776e657220697320746865207a65726f206160208301527f64647265737300000000000000000000000000000000000000000000000000006040830152606082019050919050565b6000601c82527f4552433732313a20746f6b656e20616c7265616479206d696e746564000000006020830152604082019050919050565b6000602482527f4552433732313a207472616e7366657220746f20746865207a65726f2061646460208301527f72657373000000000000000000000000000000000000000000000000000000006040830152606082019050919050565b6000601982527f4552433732313a20617070726f766520746f2063616c6c6572000000000000006020830152604082019050919050565b6000601e82527f536166654d6174683a207375627472616374696f6e206f766572666c6f7700006020830152604082019050919050565b6000602c82527f4552433732313a206f70657261746f7220717565727920666f72206e6f6e657860208301527f697374656e7420746f6b656e00000000000000000000000000000000000000006040830152606082019050919050565b6000603882527f4552433732313a20617070726f76652063616c6c6572206973206e6f74206f7760208301527f6e6572206e6f7220617070726f76656420666f7220616c6c00000000000000006040830152606082019050919050565b6000602a82527f4552433732313a2062616c616e636520717565727920666f7220746865207a6560208301527f726f2061646472657373000000000000000000000000000000000000000000006040830152606082019050919050565b6000602982527f4552433732313a206f776e657220717565727920666f72206e6f6e657869737460208301527f656e7420746f6b656e00000000000000000000000000000000000000000000006040830152606082019050919050565b6000602082527f4552433732313a206d696e7420746f20746865207a65726f20616464726573736020830152604082019050919050565b6000602c82527f4552433732313a20617070726f76656420717565727920666f72206e6f6e657860208301527f697374656e7420746f6b656e00000000000000000000000000000000000000006040830152606082019050919050565b6000602082527f4f776e61626c653a2063616c6c6572206973206e6f7420746865206f776e65726020830152604082019050919050565b6000602982527f4552433732313a207472616e73666572206f6620746f6b656e2074686174206960208301527f73206e6f74206f776e00000000000000000000000000000000000000000000006040830152606082019050919050565b6000602f82527f4552433732314d657461646174613a2055524920717565727920666f72206e6f60208301527f6e6578697374656e7420746f6b656e00000000000000000000000000000000006040830152606082019050919050565b6000602182527f4552433732313a20617070726f76616c20746f2063757272656e74206f776e6560208301527f72000000000000000000000000000000000000000000000000000000000000006040830152606082019050919050565b6000603182527f4552433732313a207472616e736665722063616c6c6572206973206e6f74206f60208301527f776e6572206e6f7220617070726f7665640000000000000000000000000000006040830152606082019050919050565b6000602c82527f455243373231456e756d657261626c653a20676c6f62616c20696e646578206f60208301527f7574206f6620626f756e647300000000000000000000000000000000000000006040830152606082019050919050565b60c08201600082015161310a600085018261317e565b50602082015161311d6020850182612a41565b506040820151613130604085018261316f565b506060820151613143606085018261318d565b506080820151613156608085018261318d565b5060a082015161316960a085018261317e565b50505050565b61317881613616565b82525050565b61318781613644565b82525050565b6131968161364e565b82525050565b60006020820190506131b16000830184612a41565b92915050565b60006080820190506131cc6000830187612a32565b6131d96020830186612a41565b6131e6604083018561317e565b81810360608301526131f88184612a5f565b905095945050505050565b60006020820190506132186000830184612a50565b92915050565b600060208201905081810360008301526132388184612a95565b905092915050565b6000602082019050818103600083015261325981612acb565b9050919050565b6000602082019050818103600083015261327981612b28565b9050919050565b6000602082019050818103600083015261329981612b85565b9050919050565b600060208201905081810360008301526132b981612be2565b9050919050565b600060208201905081810360008301526132d981612c19565b9050919050565b600060208201905081810360008301526132f981612c76565b9050919050565b6000602082019050818103600083015261331981612cad565b9050919050565b6000602082019050818103600083015261333981612ce4565b9050919050565b6000602082019050818103600083015261335981612d41565b9050919050565b6000602082019050818103600083015261337981612d9e565b9050919050565b6000602082019050818103600083015261339981612dfb565b9050919050565b600060208201905081810360008301526133b981612e58565b9050919050565b600060208201905081810360008301526133d981612e8f565b9050919050565b600060208201905081810360008301526133f981612eec565b9050919050565b6000602082019050818103600083015261341981612f23565b9050919050565b6000602082019050818103600083015261343981612f80565b9050919050565b6000602082019050818103600083015261345981612fdd565b9050919050565b600060208201905081810360008301526134798161303a565b9050919050565b6000602082019050818103600083015261349981613097565b9050919050565b600060c0820190506134b560008301846130f4565b92915050565b60006020820190506134d0600083018461316f565b92915050565b60006060820190506134eb600083018661316f565b6134f8602083018561318d565b613505604083018461318d565b949350505050565b6000602082019050613522600083018461317e565b92915050565b600060c08201905061353d600083018961317e565b61354a6020830188612a41565b613557604083018761316f565b613564606083018661318d565b613571608083018561318d565b61357e60a083018461317e565b979650505050505050565b6000604051905081810181811067ffffffffffffffff821117156135ac57600080fd5b8060405250919050565b600067ffffffffffffffff8211156135cd57600080fd5b601f19601f8301169050602081019050919050565b600081519050919050565b600081519050919050565b600061360382613624565b9050919050565b60008115159050919050565b600061ffff82169050919050565b600073ffffffffffffffffffffffffffffffffffffffff82169050919050565b6000819050919050565b600063ffffffff82169050919050565b600061366982613624565b9050919050565b60008115159050919050565b60007fffffffff0000000000000000000000000000000000000000000000000000000082169050919050565b600061ffff82169050919050565b6000819050919050565b600063ffffffff82169050919050565b60006136db826136e2565b9050919050565b60006136ed826136f4565b9050919050565b60006136ff82613624565b9050919050565b82818337600083830152505050565b60005b83811015613733578082015181840152602081019050613718565b83811115613742576000848401525b50505050565b6000601f19601f830116905091905056fea265627a7a723058202239a3a1789118e0b1ba6f35a1f538c259fd08d2a9a649fd4635f0e206daa98e6c6578706572696d656e74616cf50037",
  "source": "pragma solidity >=0.4.21 <0.6.0;\npragma experimental ABIEncoderV2;\n\nimport \"../node_modules/openzeppelin-solidity/contracts/token/ERC721/ERC721Full.sol\";\nimport \"../node_modules/openzeppelin-solidity/contracts/ownership/Ownable.sol\";\n\ncontract Booking is ERC721Full, Ownable{\n\n    constructor(string memory name, string memory symbol) ERC721Full(name, symbol) public {\n   \n    }\n\n    struct reserveInfo {\n        uint id;\n        address restaurant;\n        uint16 seatNum;\n        uint32 yaerAndMonth;\n        uint32 time;\n        uint cost;\n    }\n\n    struct seatInfo {\n        address restaurant;\n        uint16 seatNum;\n        uint16 capacity;\n    }\n\n    reserveInfo[] public reservesInfo;\n    mapping(bytes32 => reserveInfo) oneMonthSeatInfo;\n    mapping(address => mapping (uint16 => uint16)) public seatCapacity;\n\n    uint tokenId = 1;\n    bytes32 hashForRegister = '';\n\n    function registerSeat(address _resutaurantAddress,uint16 _seatNum, uint32 _yaerAndMonth, uint32 _time, uint _cost) public{\n        super._mint(msg.sender, tokenId);\n        reservesInfo.push(reserveInfo(tokenId, _resutaurantAddress, _seatNum, _yaerAndMonth, _time, _cost));\n        hashForRegister = keccak256(abi.encode(_seatNum, _yaerAndMonth, _time));\n        oneMonthSeatInfo[hashForRegister] = reserveInfo(tokenId, _resutaurantAddress, _seatNum, _yaerAndMonth, _time, _cost);\n        tokenId++;\n    }\n\n    function sell(address _to, uint tokenId, uint ethAmount) public {\n        super.transferFrom(msg.sender, _to, tokenId);\n\n    }\n\n    function getoneMonthSeatInfo(uint16 _seatNum, uint32 _yaerAndMonth, uint32 _time) public view returns (reserveInfo memory) {\n        return oneMonthSeatInfo[keccak256(abi.encode(_seatNum, _yaerAndMonth, _time))];\n    }\n\n    function createSeat(address _restaurant, uint16 _seatNum, uint16 _capacity) public {\n        seatCapacity[_restaurant][_seatNum] = _capacity;\n    }\n\n    function getSeatCapacity(address _restaurant, uint16 _seatNum) public view returns (uint16) {\n        return seatCapacity[_restaurant][_seatNum];\n    }\n}\n",
  "sourcePath": "/Users/akira/ethereum/dapps/CryptoTokyo17/backend/contracts/Booking.sol",
  "compiler": {
    "name": "solc",
    "version": "0.5.0+commit.1d4f565a.Emscripten.clang"
  },
  "schemaVersion": "3.0.2",
  "updatedAt": "2019-06-08T11:10:28.524Z",
  "devdoc": {
    "methods": {
      "approve(address,uint256)": {
        "details": "Approves another address to transfer the given token ID The zero address indicates there is no approved address. There can only be one approved address per token at a given time. Can only be called by the token owner or an approved operator.",
        "params": {
          "to": "address to be approved for the given token ID",
          "tokenId": "uint256 ID of the token to be approved"
        }
      },
      "balanceOf(address)": {
        "details": "Gets the balance of the specified address.",
        "params": {
          "owner": "address to query the balance of"
        },
        "return": "uint256 representing the amount owned by the passed address"
      },
      "getApproved(uint256)": {
        "details": "Gets the approved address for a token ID, or zero if no address set Reverts if the token ID does not exist.",
        "params": {
          "tokenId": "uint256 ID of the token to query the approval of"
        },
        "return": "address currently approved for the given token ID"
      },
      "isApprovedForAll(address,address)": {
        "details": "Tells whether an operator is approved by a given owner.",
        "params": {
          "operator": "operator address which you want to query the approval of",
          "owner": "owner address which you want to query the approval of"
        },
        "return": "bool whether the given operator is approved by the given owner"
      },
      "isOwner()": {
        "details": "Returns true if the caller is the current owner."
      },
      "name()": {
        "details": "Gets the token name.",
        "return": "string representing the token name"
      },
      "owner()": {
        "details": "Returns the address of the current owner."
      },
      "ownerOf(uint256)": {
        "details": "Gets the owner of the specified token ID.",
        "params": {
          "tokenId": "uint256 ID of the token to query the owner of"
        },
        "return": "address currently marked as the owner of the given token ID"
      },
      "renounceOwnership()": {
        "details": "Leaves the contract without owner. It will not be possible to call `onlyOwner` functions anymore. Can only be called by the current owner.     * > Note: Renouncing ownership will leave the contract without an owner, thereby removing any functionality that is only available to the owner."
      },
      "safeTransferFrom(address,address,uint256)": {
        "details": "Safely transfers the ownership of a given token ID to another address If the target address is a contract, it must implement `onERC721Received`, which is called upon a safe transfer, and return the magic value `bytes4(keccak256(\"onERC721Received(address,address,uint256,bytes)\"))`; otherwise, the transfer is reverted. Requires the msg.sender to be the owner, approved, or operator",
        "params": {
          "from": "current owner of the token",
          "to": "address to receive the ownership of the given token ID",
          "tokenId": "uint256 ID of the token to be transferred"
        }
      },
      "safeTransferFrom(address,address,uint256,bytes)": {
        "details": "Safely transfers the ownership of a given token ID to another address If the target address is a contract, it must implement `onERC721Received`, which is called upon a safe transfer, and return the magic value `bytes4(keccak256(\"onERC721Received(address,address,uint256,bytes)\"))`; otherwise, the transfer is reverted. Requires the msg.sender to be the owner, approved, or operator",
        "params": {
          "_data": "bytes data to send along with a safe transfer check",
          "from": "current owner of the token",
          "to": "address to receive the ownership of the given token ID",
          "tokenId": "uint256 ID of the token to be transferred"
        }
      },
      "setApprovalForAll(address,bool)": {
        "details": "Sets or unsets the approval of a given operator An operator is allowed to transfer all tokens of the sender on their behalf.",
        "params": {
          "approved": "representing the status of the approval to be set",
          "to": "operator address to set the approval"
        }
      },
      "supportsInterface(bytes4)": {
        "details": "See `IERC165.supportsInterface`.     * Time complexity O(1), guaranteed to always use less than 30 000 gas."
      },
      "symbol()": {
        "details": "Gets the token symbol.",
        "return": "string representing the token symbol"
      },
      "tokenByIndex(uint256)": {
        "details": "Gets the token ID at a given index of all the tokens in this contract Reverts if the index is greater or equal to the total number of tokens.",
        "params": {
          "index": "uint256 representing the index to be accessed of the tokens list"
        },
        "return": "uint256 token ID at the given index of the tokens list"
      },
      "tokenOfOwnerByIndex(address,uint256)": {
        "details": "Gets the token ID at a given index of the tokens list of the requested owner.",
        "params": {
          "index": "uint256 representing the index to be accessed of the requested tokens list",
          "owner": "address owning the tokens list to be accessed"
        },
        "return": "uint256 token ID at the given index of the tokens list owned by the requested address"
      },
      "tokenURI(uint256)": {
        "details": "Returns an URI for a given token ID. Throws if the token ID does not exist. May return an empty string.",
        "params": {
          "tokenId": "uint256 ID of the token to query"
        }
      },
      "totalSupply()": {
        "details": "Gets the total amount of tokens stored by the contract.",
        "return": "uint256 representing the total amount of tokens"
      },
      "transferFrom(address,address,uint256)": {
        "details": "Transfers the ownership of a given token ID to another address. Usage of this method is discouraged, use `safeTransferFrom` whenever possible. Requires the msg.sender to be the owner, approved, or operator.",
        "params": {
          "from": "current owner of the token",
          "to": "address to receive the ownership of the given token ID",
          "tokenId": "uint256 ID of the token to be transferred"
        }
      },
      "transferOwnership(address)": {
        "details": "Transfers ownership of the contract to a new account (`newOwner`). Can only be called by the current owner."
      }
    }
  },
  "userdoc": {
    "methods": {}
  }
}