{
  "contractName": "Booking",
  "abi": [
    {
      "constant": true,
      "inputs": [
        {
          "name": "interfaceId",
          "type": "bytes4"
        }
      ],
      "name": "supportsInterface",
      "outputs": [
        {
          "name": "",
          "type": "bool"
        }
      ],
      "payable": false,
      "stateMutability": "view",
      "type": "function",
      "signature": "0x01ffc9a7"
    },
    {
      "constant": true,
      "inputs": [],
      "name": "name",
      "outputs": [
        {
          "name": "",
          "type": "string"
        }
      ],
      "payable": false,
      "stateMutability": "view",
      "type": "function",
      "signature": "0x06fdde03"
    },
    {
      "constant": true,
      "inputs": [
        {
          "name": "tokenId",
          "type": "uint256"
        }
      ],
      "name": "getApproved",
      "outputs": [
        {
          "name": "",
          "type": "address"
        }
      ],
      "payable": false,
      "stateMutability": "view",
      "type": "function",
      "signature": "0x081812fc"
    },
    {
      "constant": false,
      "inputs": [
        {
          "name": "to",
          "type": "address"
        },
        {
          "name": "tokenId",
          "type": "uint256"
        }
      ],
      "name": "approve",
      "outputs": [],
      "payable": false,
      "stateMutability": "nonpayable",
      "type": "function",
      "signature": "0x095ea7b3"
    },
    {
      "constant": true,
      "inputs": [],
      "name": "totalSupply",
      "outputs": [
        {
          "name": "",
          "type": "uint256"
        }
      ],
      "payable": false,
      "stateMutability": "view",
      "type": "function",
      "signature": "0x18160ddd"
    },
    {
      "constant": false,
      "inputs": [
        {
          "name": "from",
          "type": "address"
        },
        {
          "name": "to",
          "type": "address"
        },
        {
          "name": "tokenId",
          "type": "uint256"
        }
      ],
      "name": "transferFrom",
      "outputs": [],
      "payable": false,
      "stateMutability": "nonpayable",
      "type": "function",
      "signature": "0x23b872dd"
    },
    {
      "constant": true,
      "inputs": [
        {
          "name": "",
          "type": "uint256"
        }
      ],
      "name": "reservesInfo",
      "outputs": [
        {
          "name": "id",
          "type": "uint256"
        },
        {
          "name": "restaurant",
          "type": "address"
        },
        {
          "name": "seatNum",
          "type": "uint16"
        },
        {
          "name": "yaerAndMonth",
          "type": "uint32"
        },
        {
          "name": "time",
          "type": "uint32"
        },
        {
          "name": "cost",
          "type": "uint256"
        },
        {
          "name": "onSale",
          "type": "bool"
        }
      ],
      "payable": false,
      "stateMutability": "view",
      "type": "function",
      "signature": "0x2adee1c7"
    },
    {
      "constant": true,
      "inputs": [
        {
          "name": "owner",
          "type": "address"
        },
        {
          "name": "index",
          "type": "uint256"
        }
      ],
      "name": "tokenOfOwnerByIndex",
      "outputs": [
        {
          "name": "",
          "type": "uint256"
        }
      ],
      "payable": false,
      "stateMutability": "view",
      "type": "function",
      "signature": "0x2f745c59"
    },
    {
      "constant": false,
      "inputs": [
        {
          "name": "from",
          "type": "address"
        },
        {
          "name": "to",
          "type": "address"
        },
        {
          "name": "tokenId",
          "type": "uint256"
        }
      ],
      "name": "safeTransferFrom",
      "outputs": [],
      "payable": false,
      "stateMutability": "nonpayable",
      "type": "function",
      "signature": "0x42842e0e"
    },
    {
      "constant": true,
      "inputs": [
        {
          "name": "index",
          "type": "uint256"
        }
      ],
      "name": "tokenByIndex",
      "outputs": [
        {
          "name": "",
          "type": "uint256"
        }
      ],
      "payable": false,
      "stateMutability": "view",
      "type": "function",
      "signature": "0x4f6ccce7"
    },
    {
      "constant": true,
      "inputs": [
        {
          "name": "tokenId",
          "type": "uint256"
        }
      ],
      "name": "ownerOf",
      "outputs": [
        {
          "name": "",
          "type": "address"
        }
      ],
      "payable": false,
      "stateMutability": "view",
      "type": "function",
      "signature": "0x6352211e"
    },
    {
      "constant": true,
      "inputs": [
        {
          "name": "owner",
          "type": "address"
        }
      ],
      "name": "balanceOf",
      "outputs": [
        {
          "name": "",
          "type": "uint256"
        }
      ],
      "payable": false,
      "stateMutability": "view",
      "type": "function",
      "signature": "0x70a08231"
    },
    {
      "constant": false,
      "inputs": [],
      "name": "renounceOwnership",
      "outputs": [],
      "payable": false,
      "stateMutability": "nonpayable",
      "type": "function",
      "signature": "0x715018a6"
    },
    {
      "constant": true,
      "inputs": [
        {
          "name": "",
          "type": "address"
        },
        {
          "name": "",
          "type": "uint16"
        }
      ],
      "name": "seatInformation",
      "outputs": [
        {
          "name": "restaurant",
          "type": "address"
        },
        {
          "name": "seatNum",
          "type": "uint16"
        },
        {
          "name": "capacity",
          "type": "uint16"
        },
        {
          "name": "reservationFee",
          "type": "uint256"
        }
      ],
      "payable": false,
      "stateMutability": "view",
      "type": "function",
      "signature": "0x7a5c6829"
    },
    {
      "constant": true,
      "inputs": [],
      "name": "owner",
      "outputs": [
        {
          "name": "",
          "type": "address"
        }
      ],
      "payable": false,
      "stateMutability": "view",
      "type": "function",
      "signature": "0x8da5cb5b"
    },
    {
      "constant": true,
      "inputs": [],
      "name": "isOwner",
      "outputs": [
        {
          "name": "",
          "type": "bool"
        }
      ],
      "payable": false,
      "stateMutability": "view",
      "type": "function",
      "signature": "0x8f32d59b"
    },
    {
      "constant": true,
      "inputs": [],
      "name": "symbol",
      "outputs": [
        {
          "name": "",
          "type": "string"
        }
      ],
      "payable": false,
      "stateMutability": "view",
      "type": "function",
      "signature": "0x95d89b41"
    },
    {
      "constant": false,
      "inputs": [
        {
          "name": "to",
          "type": "address"
        },
        {
          "name": "approved",
          "type": "bool"
        }
      ],
      "name": "setApprovalForAll",
      "outputs": [],
      "payable": false,
      "stateMutability": "nonpayable",
      "type": "function",
      "signature": "0xa22cb465"
    },
    {
      "constant": false,
      "inputs": [
        {
          "name": "from",
          "type": "address"
        },
        {
          "name": "to",
          "type": "address"
        },
        {
          "name": "tokenId",
          "type": "uint256"
        },
        {
          "name": "_data",
          "type": "bytes"
        }
      ],
      "name": "safeTransferFrom",
      "outputs": [],
      "payable": false,
      "stateMutability": "nonpayable",
      "type": "function",
      "signature": "0xb88d4fde"
    },
    {
      "constant": true,
      "inputs": [
        {
          "name": "tokenId",
          "type": "uint256"
        }
      ],
      "name": "tokenURI",
      "outputs": [
        {
          "name": "",
          "type": "string"
        }
      ],
      "payable": false,
      "stateMutability": "view",
      "type": "function",
      "signature": "0xc87b56dd"
    },
    {
      "constant": true,
      "inputs": [
        {
          "name": "owner",
          "type": "address"
        },
        {
          "name": "operator",
          "type": "address"
        }
      ],
      "name": "isApprovedForAll",
      "outputs": [
        {
          "name": "",
          "type": "bool"
        }
      ],
      "payable": false,
      "stateMutability": "view",
      "type": "function",
      "signature": "0xe985e9c5"
    },
    {
      "constant": false,
      "inputs": [
        {
          "name": "newOwner",
          "type": "address"
        }
      ],
      "name": "transferOwnership",
      "outputs": [],
      "payable": false,
      "stateMutability": "nonpayable",
      "type": "function",
      "signature": "0xf2fde38b"
    },
    {
      "inputs": [
        {
          "name": "name",
          "type": "string"
        },
        {
          "name": "symbol",
          "type": "string"
        }
      ],
      "payable": false,
      "stateMutability": "nonpayable",
      "type": "constructor",
      "signature": "constructor"
    },
    {
      "anonymous": false,
      "inputs": [
        {
          "indexed": true,
          "name": "previousOwner",
          "type": "address"
        },
        {
          "indexed": true,
          "name": "newOwner",
          "type": "address"
        }
      ],
      "name": "OwnershipTransferred",
      "type": "event",
      "signature": "0x8be0079c531659141344cd1fd0a4f28419497f9722a3daafe3b4186f6b6457e0"
    },
    {
      "anonymous": false,
      "inputs": [
        {
          "indexed": true,
          "name": "from",
          "type": "address"
        },
        {
          "indexed": true,
          "name": "to",
          "type": "address"
        },
        {
          "indexed": true,
          "name": "tokenId",
          "type": "uint256"
        }
      ],
      "name": "Transfer",
      "type": "event",
      "signature": "0xddf252ad1be2c89b69c2b068fc378daa952ba7f163c4a11628f55a4df523b3ef"
    },
    {
      "anonymous": false,
      "inputs": [
        {
          "indexed": true,
          "name": "owner",
          "type": "address"
        },
        {
          "indexed": true,
          "name": "approved",
          "type": "address"
        },
        {
          "indexed": true,
          "name": "tokenId",
          "type": "uint256"
        }
      ],
      "name": "Approval",
      "type": "event",
      "signature": "0x8c5be1e5ebec7d5bd14f71427d1e84f3dd0314c0f7b2291e5b200ac8c7c3b925"
    },
    {
      "anonymous": false,
      "inputs": [
        {
          "indexed": true,
          "name": "owner",
          "type": "address"
        },
        {
          "indexed": true,
          "name": "operator",
          "type": "address"
        },
        {
          "indexed": false,
          "name": "approved",
          "type": "bool"
        }
      ],
      "name": "ApprovalForAll",
      "type": "event",
      "signature": "0x17307eab39ab6107e8899845ad3d59bd9653f200f220920489ca2b5937696c31"
    },
    {
      "constant": false,
      "inputs": [
        {
          "name": "_resutaurantAddress",
          "type": "address"
        },
        {
          "name": "_seatNum",
          "type": "uint16"
        },
        {
          "name": "_yaerAndMonth",
          "type": "uint32"
        },
        {
          "name": "_time",
          "type": "uint32"
        },
        {
          "name": "_cost",
          "type": "uint256"
        }
      ],
      "name": "registerSeat",
      "outputs": [],
      "payable": false,
      "stateMutability": "nonpayable",
      "type": "function",
      "signature": "0x18190afe"
    },
    {
      "constant": false,
      "inputs": [
        {
          "name": "_resutaurantAddress",
          "type": "address"
        },
        {
          "name": "_seatNum",
          "type": "uint16"
        },
        {
          "name": "_yaerAndMonth",
          "type": "uint32"
        },
        {
          "name": "_time",
          "type": "uint32"
        },
        {
          "name": "_cost",
          "type": "uint256"
        }
      ],
      "name": "onSale",
      "outputs": [],
      "payable": false,
      "stateMutability": "nonpayable",
      "type": "function",
      "signature": "0xc5a9f1fb"
    },
    {
      "constant": false,
      "inputs": [
        {
          "name": "_to",
          "type": "address"
        },
        {
          "name": "tokenId",
          "type": "uint256"
        },
        {
          "name": "_amount",
          "type": "uint256"
        }
      ],
      "name": "buySeat",
      "outputs": [],
      "payable": false,
      "stateMutability": "nonpayable",
      "type": "function",
      "signature": "0x5e56a6b4"
    },
    {
      "constant": false,
      "inputs": [
        {
          "name": "_to",
          "type": "address"
        },
        {
          "name": "tokenId",
          "type": "uint256"
        },
        {
          "name": "_amount",
          "type": "uint256"
        }
      ],
      "name": "getBackSeat",
      "outputs": [],
      "payable": false,
      "stateMutability": "nonpayable",
      "type": "function",
      "signature": "0x916f0067"
    },
    {
      "constant": true,
      "inputs": [
        {
          "name": "_seatNum",
          "type": "uint16"
        },
        {
          "name": "_yaerAndMonth",
          "type": "uint32"
        },
        {
          "name": "_time",
          "type": "uint32"
        }
      ],
      "name": "getoneMonthSeatInfo",
      "outputs": [
        {
          "components": [
            {
              "name": "id",
              "type": "uint256"
            },
            {
              "name": "restaurant",
              "type": "address"
            },
            {
              "name": "seatNum",
              "type": "uint16"
            },
            {
              "name": "yaerAndMonth",
              "type": "uint32"
            },
            {
              "name": "time",
              "type": "uint32"
            },
            {
              "name": "cost",
              "type": "uint256"
            },
            {
              "name": "onSale",
              "type": "bool"
            }
          ],
          "name": "",
          "type": "tuple"
        }
      ],
      "payable": false,
      "stateMutability": "view",
      "type": "function",
      "signature": "0x2836a79b"
    },
    {
      "constant": false,
      "inputs": [
        {
          "name": "_restaurant",
          "type": "address"
        },
        {
          "name": "_seatNum",
          "type": "uint16"
        },
        {
          "name": "_capacity",
          "type": "uint16"
        },
        {
          "name": "reservationFee",
          "type": "uint256"
        }
      ],
      "name": "createSeat",
      "outputs": [],
      "payable": false,
      "stateMutability": "nonpayable",
      "type": "function",
      "signature": "0xf95dfcb3"
    },
    {
      "constant": true,
      "inputs": [
        {
          "name": "_restaurant",
          "type": "address"
        },
        {
          "name": "_seatNum",
          "type": "uint16"
        }
      ],
      "name": "getSeatInfo",
      "outputs": [
        {
          "components": [
            {
              "name": "restaurant",
              "type": "address"
            },
            {
              "name": "seatNum",
              "type": "uint16"
            },
            {
              "name": "capacity",
              "type": "uint16"
            },
            {
              "name": "reservationFee",
              "type": "uint256"
            }
          ],
          "name": "",
          "type": "tuple"
        }
      ],
      "payable": false,
      "stateMutability": "view",
      "type": "function",
      "signature": "0xe5ef7612"
    }
  ],
  "bytecode": "0x6080604052600160105560006011553480156200001b57600080fd5b506040516200413738038062004137833981018060405262000041919081019062000438565b81818181620000826301ffc9a77c01000000000000000000000000000000000000000000000000000000000262000235640100000000026401000000009004565b620000bf6380ac58cd7c01000000000000000000000000000000000000000000000000000000000262000235640100000000026401000000009004565b620000fc63780e9d637c01000000000000000000000000000000000000000000000000000000000262000235640100000000026401000000009004565b8160099080519060200190620001149291906200032b565b5080600a90805190602001906200012d9291906200032b565b506200016b635b5e139f7c01000000000000000000000000000000000000000000000000000000000262000235640100000000026401000000009004565b5050505033600c60006101000a81548173ffffffffffffffffffffffffffffffffffffffff021916908373ffffffffffffffffffffffffffffffffffffffff160217905550600c60009054906101000a900473ffffffffffffffffffffffffffffffffffffffff1673ffffffffffffffffffffffffffffffffffffffff16600073ffffffffffffffffffffffffffffffffffffffff167f8be0079c531659141344cd1fd0a4f28419497f9722a3daafe3b4186f6b6457e060405160405180910390a3505062000595565b63ffffffff7c010000000000000000000000000000000000000000000000000000000002817bffffffffffffffffffffffffffffffffffffffffffffffffffffffff191614151515620002bf576040517f08c379a0000000000000000000000000000000000000000000000000000000008152600401620002b690620004e2565b60405180910390fd5b6001600080837bffffffffffffffffffffffffffffffffffffffffffffffffffffffff19167bffffffffffffffffffffffffffffffffffffffffffffffffffffffff1916815260200190815260200160002060006101000a81548160ff02191690831515021790555050565b828054600181600116156101000203166002900490600052602060002090601f016020900481019282601f106200036e57805160ff19168380011785556200039f565b828001600101855582156200039f579182015b828111156200039e57825182559160200191906001019062000381565b5b509050620003ae9190620003b2565b5090565b620003d791905b80821115620003d3576000816000905550600101620003b9565b5090565b90565b600082601f8301121515620003ee57600080fd5b815162000405620003ff8262000532565b62000504565b915080825260208301602083018583830111156200042257600080fd5b6200042f8382846200055f565b50505092915050565b600080604083850312156200044c57600080fd5b600083015167ffffffffffffffff8111156200046757600080fd5b6200047585828601620003da565b925050602083015167ffffffffffffffff8111156200049357600080fd5b620004a185828601620003da565b9150509250929050565b6000601c82527f4552433136353a20696e76616c696420696e74657266616365206964000000006020830152604082019050919050565b60006020820190508181036000830152620004fd81620004ab565b9050919050565b6000604051905081810181811067ffffffffffffffff821117156200052857600080fd5b8060405250919050565b600067ffffffffffffffff8211156200054a57600080fd5b601f19601f8301169050602081019050919050565b60005b838110156200057f57808201518184015260208101905062000562565b838111156200058f576000848401525b50505050565b613b9280620005a56000396000f3fe608060405260043610610175576000357c0100000000000000000000000000000000000000000000000000000000900463ffffffff16806301ffc9a71461017a57806306fdde03146101b7578063081812fc146101e2578063095ea7b31461021f57806318160ddd1461024857806318190afe1461027357806323b872dd1461029c5780632836a79b146102c55780632adee1c7146103025780632f745c591461034557806342842e0e146103825780634f6ccce7146103ab5780635e56a6b4146103e85780636352211e1461041157806370a082311461044e578063715018a61461048b5780637a5c6829146104a25780638da5cb5b146104e25780638f32d59b1461050d578063916f00671461053857806395d89b4114610561578063a22cb4651461058c578063b88d4fde146105b5578063c5a9f1fb146105de578063c87b56dd14610607578063e5ef761214610644578063e985e9c514610681578063f2fde38b146106be578063f95dfcb3146106e7575b600080fd5b34801561018657600080fd5b506101a1600480360361019c9190810190612c63565b610710565b6040516101ae91906135e2565b60405180910390f35b3480156101c357600080fd5b506101cc610777565b6040516101d991906135fd565b60405180910390f35b3480156101ee57600080fd5b5061020960048036036102049190810190612d04565b610819565b60405161021691906134ff565b60405180910390f35b34801561022b57600080fd5b5061024660048036036102419190810190612c27565b6108a0565b005b34801561025457600080fd5b5061025d610a51565b60405161026a91906138ec565b60405180910390f35b34801561027f57600080fd5b5061029a60048036036102959190810190612909565b610a5e565b005b3480156102a857600080fd5b506102c360048036036102be9190810190612a0b565b610a71565b005b3480156102d157600080fd5b506102ec60048036036102e79190810190612cb5565b610acc565b6040516102f9919061387f565b60405180910390f35b34801561030e57600080fd5b5061032960048036036103249190810190612d04565b610c17565b60405161033c9796959493929190613907565b60405180910390f35b34801561035157600080fd5b5061036c60048036036103679190810190612c27565b610cc3565b60405161037991906138ec565b60405180910390f35b34801561038e57600080fd5b506103a960048036036103a49190810190612a0b565b610d70565b005b3480156103b757600080fd5b506103d260048036036103cd9190810190612d04565b610d91565b6040516103df91906138ec565b60405180910390f35b3480156103f457600080fd5b5061040f600480360361040a9190810190612980565b610dff565b005b34801561041d57600080fd5b5061043860048036036104339190810190612d04565b610ed6565b60405161044591906134ff565b60405180910390f35b34801561045a57600080fd5b50610475600480360361047091908101906128e0565b610f8a565b60405161048291906138ec565b60405180910390f35b34801561049757600080fd5b506104a061104b565b005b3480156104ae57600080fd5b506104c960048036036104c49190810190612b11565b611155565b6040516104d9949392919061359d565b60405180910390f35b3480156104ee57600080fd5b506104f76111ce565b60405161050491906134ff565b60405180910390f35b34801561051957600080fd5b506105226111f8565b60405161052f91906135e2565b60405180910390f35b34801561054457600080fd5b5061055f600480360361055a9190810190612980565b611250565b005b34801561056d57600080fd5b506105766112a7565b60405161058391906135fd565b60405180910390f35b34801561059857600080fd5b506105b360048036036105ae9190810190612ad5565b611349565b005b3480156105c157600080fd5b506105dc60048036036105d79190810190612a5a565b6114b7565b005b3480156105ea57600080fd5b5061060560048036036106009190810190612bb0565b611515565b005b34801561061357600080fd5b5061062e60048036036106299190810190612d04565b61168c565b60405161063b91906135fd565b60405180910390f35b34801561065057600080fd5b5061066b60048036036106669190810190612b11565b61178b565b604051610678919061389a565b60405180910390f35b34801561068d57600080fd5b506106a860048036036106a391908101906129cf565b61189f565b6040516106b591906135e2565b60405180910390f35b3480156106ca57600080fd5b506106e560048036036106e091908101906128e0565b611933565b005b3480156106f357600080fd5b5061070e60048036036107099190810190612b4d565b611988565b005b6000806000837bffffffffffffffffffffffffffffffffffffffffffffffffffffffff19167bffffffffffffffffffffffffffffffffffffffffffffffffffffffff1916815260200190815260200160002060009054906101000a900460ff169050919050565b606060098054600181600116156101000203166002900480601f01602080910402602001604051908101604052809291908181526020018280546001816001161561010002031660029004801561080f5780601f106107e45761010080835404028352916020019161080f565b820191906000526020600020905b8154815290600101906020018083116107f257829003601f168201915b5050505050905090565b600061082482611ac0565b1515610865576040517f08c379a000000000000000000000000000000000000000000000000000000000815260040161085c9061379f565b60405180910390fd5b6002600083815260200190815260200160002060009054906101000a900473ffffffffffffffffffffffffffffffffffffffff169050919050565b60006108ab82610ed6565b90508073ffffffffffffffffffffffffffffffffffffffff168373ffffffffffffffffffffffffffffffffffffffff161415151561091e576040517f08c379a00000000000000000000000000000000000000000000000000000000081526004016109159061381f565b60405180910390fd5b8073ffffffffffffffffffffffffffffffffffffffff163373ffffffffffffffffffffffffffffffffffffffff16148061095e575061095d813361189f565b5b151561099f576040517f08c379a00000000000000000000000000000000000000000000000000000000081526004016109969061371f565b60405180910390fd5b826002600084815260200190815260200160002060006101000a81548173ffffffffffffffffffffffffffffffffffffffff021916908373ffffffffffffffffffffffffffffffffffffffff160217905550818373ffffffffffffffffffffffffffffffffffffffff168273ffffffffffffffffffffffffffffffffffffffff167f8c5be1e5ebec7d5bd14f71427d1e84f3dd0314c0f7b2291e5b200ac8c7c3b92560405160405180910390a4505050565b6000600780549050905090565b610a6a33601054611b32565b5050505050565b610a7b3382611b53565b1515610abc576040517f08c379a0000000000000000000000000000000000000000000000000000000008152600401610ab39061383f565b60405180910390fd5b610ac7838383611c33565b505050565b610ad46126ec565b600e6000858585604051602001610aed939291906138b5565b60405160208183030381529060405280519060200120815260200190815260200160002060e06040519081016040529081600082015481526020016001820160009054906101000a900473ffffffffffffffffffffffffffffffffffffffff1673ffffffffffffffffffffffffffffffffffffffff1673ffffffffffffffffffffffffffffffffffffffff1681526020016001820160149054906101000a900461ffff1661ffff1661ffff1681526020016001820160169054906101000a900463ffffffff1663ffffffff1663ffffffff16815260200160018201601a9054906101000a900463ffffffff1663ffffffff1663ffffffff168152602001600282015481526020016003820160009054906101000a900460ff16151515158152505090509392505050565b600d81815481101515610c2657fe5b90600052602060002090600402016000915090508060000154908060010160009054906101000a900473ffffffffffffffffffffffffffffffffffffffff16908060010160149054906101000a900461ffff16908060010160169054906101000a900463ffffffff169080600101601a9054906101000a900463ffffffff16908060020154908060030160009054906101000a900460ff16905087565b6000610cce83610f8a565b82101515610d11576040517f08c379a0000000000000000000000000000000000000000000000000000000008152600401610d089061361f565b60405180910390fd5b600560008473ffffffffffffffffffffffffffffffffffffffff1673ffffffffffffffffffffffffffffffffffffffff16815260200190815260200160002082815481101515610d5d57fe5b9060005260206000200154905092915050565b610d8c83838360206040519081016040528060008152506114b7565b505050565b6000610d9b610a51565b82101515610dde576040517f08c379a0000000000000000000000000000000000000000000000000000000008152600401610dd59061385f565b60405180910390fd5b600782815481101515610ded57fe5b90600052602060002001549050919050565b3073ffffffffffffffffffffffffffffffffffffffff166323b872dd3033856040518463ffffffff167c0100000000000000000000000000000000000000000000000000000000028152600401610e5893929190613566565b600060405180830381600087803b158015610e7257600080fd5b505af1158015610e86573d6000803e3d6000fd5b505050508273ffffffffffffffffffffffffffffffffffffffff166108fc829081150290604051600060405180830381858888f19350505050158015610ed0573d6000803e3d6000fd5b50505050565b6000806001600084815260200190815260200160002060009054906101000a900473ffffffffffffffffffffffffffffffffffffffff169050600073ffffffffffffffffffffffffffffffffffffffff168173ffffffffffffffffffffffffffffffffffffffff1614151515610f81576040517f08c379a0000000000000000000000000000000000000000000000000000000008152600401610f789061375f565b60405180910390fd5b80915050919050565b60008073ffffffffffffffffffffffffffffffffffffffff168273ffffffffffffffffffffffffffffffffffffffff1614151515610ffd576040517f08c379a0000000000000000000000000000000000000000000000000000000008152600401610ff49061373f565b60405180910390fd5b611044600360008473ffffffffffffffffffffffffffffffffffffffff1673ffffffffffffffffffffffffffffffffffffffff168152602001908152602001600020611c57565b9050919050565b6110536111f8565b1515611094576040517f08c379a000000000000000000000000000000000000000000000000000000000815260040161108b906137bf565b60405180910390fd5b600073ffffffffffffffffffffffffffffffffffffffff16600c60009054906101000a900473ffffffffffffffffffffffffffffffffffffffff1673ffffffffffffffffffffffffffffffffffffffff167f8be0079c531659141344cd1fd0a4f28419497f9722a3daafe3b4186f6b6457e060405160405180910390a36000600c60006101000a81548173ffffffffffffffffffffffffffffffffffffffff021916908373ffffffffffffffffffffffffffffffffffffffff160217905550565b600f602052816000526040600020602052806000526040600020600091509150508060000160009054906101000a900473ffffffffffffffffffffffffffffffffffffffff16908060000160149054906101000a900461ffff16908060000160169054906101000a900461ffff16908060010154905084565b6000600c60009054906101000a900473ffffffffffffffffffffffffffffffffffffffff16905090565b6000600c60009054906101000a900473ffffffffffffffffffffffffffffffffffffffff1673ffffffffffffffffffffffffffffffffffffffff163373ffffffffffffffffffffffffffffffffffffffff1614905090565b61125b338484610a71565b8273ffffffffffffffffffffffffffffffffffffffff166108fc829081150290604051600060405180830381858888f193505050501580156112a1573d6000803e3d6000fd5b50505050565b6060600a8054600181600116156101000203166002900480601f01602080910402602001604051908101604052809291908181526020018280546001816001161561010002031660029004801561133f5780601f106113145761010080835404028352916020019161133f565b820191906000526020600020905b81548152906001019060200180831161132257829003601f168201915b5050505050905090565b3373ffffffffffffffffffffffffffffffffffffffff168273ffffffffffffffffffffffffffffffffffffffff16141515156113ba576040517f08c379a00000000000000000000000000000000000000000000000000000000081526004016113b1906136bf565b60405180910390fd5b80600460003373ffffffffffffffffffffffffffffffffffffffff1673ffffffffffffffffffffffffffffffffffffffff16815260200190815260200160002060008473ffffffffffffffffffffffffffffffffffffffff1673ffffffffffffffffffffffffffffffffffffffff16815260200190815260200160002060006101000a81548160ff0219169083151502179055508173ffffffffffffffffffffffffffffffffffffffff163373ffffffffffffffffffffffffffffffffffffffff167f17307eab39ab6107e8899845ad3d59bd9653f200f220920489ca2b5937696c31836040516114ab91906135e2565b60405180910390a35050565b6114c2848484610a71565b6114ce84848484611c65565b151561150f576040517f08c379a00000000000000000000000000000000000000000000000000000000081526004016115069061363f565b60405180910390fd5b50505050565b60e06040519081016040528060105481526020018673ffffffffffffffffffffffffffffffffffffffff1681526020018561ffff1681526020018463ffffffff1681526020018363ffffffff16815260200182815260200160011515815250600e600060115481526020019081526020016000206000820151816000015560208201518160010160006101000a81548173ffffffffffffffffffffffffffffffffffffffff021916908373ffffffffffffffffffffffffffffffffffffffff16021790555060408201518160010160146101000a81548161ffff021916908361ffff16021790555060608201518160010160166101000a81548163ffffffff021916908363ffffffff160217905550608082015181600101601a6101000a81548163ffffffff021916908363ffffffff16021790555060a0820151816002015560c08201518160030160006101000a81548160ff0219169083151502179055509050506116853330601054610a71565b5050505050565b606061169782611ac0565b15156116d8576040517f08c379a00000000000000000000000000000000000000000000000000000000081526004016116cf906137ff565b60405180910390fd5b600b60008381526020019081526020016000208054600181600116156101000203166002900480601f01602080910402602001604051908101604052809291908181526020018280546001816001161561010002031660029004801561177f5780601f106117545761010080835404028352916020019161177f565b820191906000526020600020905b81548152906001019060200180831161176257829003601f168201915b50505050509050919050565b611793612752565b600f60008473ffffffffffffffffffffffffffffffffffffffff1673ffffffffffffffffffffffffffffffffffffffff16815260200190815260200160002060008361ffff1661ffff168152602001908152602001600020608060405190810160405290816000820160009054906101000a900473ffffffffffffffffffffffffffffffffffffffff1673ffffffffffffffffffffffffffffffffffffffff1673ffffffffffffffffffffffffffffffffffffffff1681526020016000820160149054906101000a900461ffff1661ffff1661ffff1681526020016000820160169054906101000a900461ffff1661ffff1661ffff168152602001600182015481525050905092915050565b6000600460008473ffffffffffffffffffffffffffffffffffffffff1673ffffffffffffffffffffffffffffffffffffffff16815260200190815260200160002060008373ffffffffffffffffffffffffffffffffffffffff1673ffffffffffffffffffffffffffffffffffffffff16815260200190815260200160002060009054906101000a900460ff16905092915050565b61193b6111f8565b151561197c576040517f08c379a0000000000000000000000000000000000000000000000000000000008152600401611973906137bf565b60405180910390fd5b61198581611db6565b50565b6080604051908101604052808573ffffffffffffffffffffffffffffffffffffffff1681526020018461ffff1681526020018361ffff16815260200182815250600f60008673ffffffffffffffffffffffffffffffffffffffff1673ffffffffffffffffffffffffffffffffffffffff16815260200190815260200160002060008561ffff1661ffff16815260200190815260200160002060008201518160000160006101000a81548173ffffffffffffffffffffffffffffffffffffffff021916908373ffffffffffffffffffffffffffffffffffffffff16021790555060208201518160000160146101000a81548161ffff021916908361ffff16021790555060408201518160000160166101000a81548161ffff021916908361ffff1602179055506060820151816001015590505050505050565b6000806001600084815260200190815260200160002060009054906101000a900473ffffffffffffffffffffffffffffffffffffffff169050600073ffffffffffffffffffffffffffffffffffffffff168173ffffffffffffffffffffffffffffffffffffffff161415915050919050565b611b3c8282611ee8565b611b46828261209e565b611b4f81612165565b5050565b6000611b5e82611ac0565b1515611b9f576040517f08c379a0000000000000000000000000000000000000000000000000000000008152600401611b96906136ff565b60405180910390fd5b6000611baa83610ed6565b90508073ffffffffffffffffffffffffffffffffffffffff168473ffffffffffffffffffffffffffffffffffffffff161480611c1957508373ffffffffffffffffffffffffffffffffffffffff16611c0184610819565b73ffffffffffffffffffffffffffffffffffffffff16145b80611c2a5750611c29818561189f565b5b91505092915050565b611c3e8383836121b1565b611c4883826123e4565b611c52828261209e565b505050565b600081600001549050919050565b6000611c868473ffffffffffffffffffffffffffffffffffffffff16612588565b1515611c955760019050611dae565b60008473ffffffffffffffffffffffffffffffffffffffff1663150b7a02338887876040518563ffffffff167c0100000000000000000000000000000000000000000000000000000000028152600401611cf2949392919061351a565b602060405180830381600087803b158015611d0c57600080fd5b505af1158015611d20573d6000803e3d6000fd5b505050506040513d601f19601f82011682018060405250611d449190810190612c8c565b905063150b7a027c0100000000000000000000000000000000000000000000000000000000027bffffffffffffffffffffffffffffffffffffffffffffffffffffffff1916817bffffffffffffffffffffffffffffffffffffffffffffffffffffffff1916149150505b949350505050565b600073ffffffffffffffffffffffffffffffffffffffff168173ffffffffffffffffffffffffffffffffffffffff1614151515611e28576040517f08c379a0000000000000000000000000000000000000000000000000000000008152600401611e1f9061365f565b60405180910390fd5b8073ffffffffffffffffffffffffffffffffffffffff16600c60009054906101000a900473ffffffffffffffffffffffffffffffffffffffff1673ffffffffffffffffffffffffffffffffffffffff167f8be0079c531659141344cd1fd0a4f28419497f9722a3daafe3b4186f6b6457e060405160405180910390a380600c60006101000a81548173ffffffffffffffffffffffffffffffffffffffff021916908373ffffffffffffffffffffffffffffffffffffffff16021790555050565b600073ffffffffffffffffffffffffffffffffffffffff168273ffffffffffffffffffffffffffffffffffffffff1614151515611f5a576040517f08c379a0000000000000000000000000000000000000000000000000000000008152600401611f519061377f565b60405180910390fd5b611f6381611ac0565b151515611fa5576040517f08c379a0000000000000000000000000000000000000000000000000000000008152600401611f9c9061367f565b60405180910390fd5b816001600083815260200190815260200160002060006101000a81548173ffffffffffffffffffffffffffffffffffffffff021916908373ffffffffffffffffffffffffffffffffffffffff16021790555061203e600360008473ffffffffffffffffffffffffffffffffffffffff1673ffffffffffffffffffffffffffffffffffffffff16815260200190815260200160002061259b565b808273ffffffffffffffffffffffffffffffffffffffff16600073ffffffffffffffffffffffffffffffffffffffff167fddf252ad1be2c89b69c2b068fc378daa952ba7f163c4a11628f55a4df523b3ef60405160405180910390a45050565b600560008373ffffffffffffffffffffffffffffffffffffffff1673ffffffffffffffffffffffffffffffffffffffff168152602001908152602001600020805490506006600083815260200190815260200160002081905550600560008373ffffffffffffffffffffffffffffffffffffffff1673ffffffffffffffffffffffffffffffffffffffff1681526020019081526020016000208190806001815401808255809150509060018203906000526020600020016000909192909190915055505050565b6007805490506008600083815260200190815260200160002081905550600781908060018154018082558091505090600182039060005260206000200160009091929091909150555050565b8273ffffffffffffffffffffffffffffffffffffffff166121d182610ed6565b73ffffffffffffffffffffffffffffffffffffffff16141515612229576040517f08c379a0000000000000000000000000000000000000000000000000000000008152600401612220906137df565b60405180910390fd5b600073ffffffffffffffffffffffffffffffffffffffff168273ffffffffffffffffffffffffffffffffffffffff161415151561229b576040517f08c379a00000000000000000000000000000000000000000000000000000000081526004016122929061369f565b60405180910390fd5b6122a4816125b1565b6122eb600360008573ffffffffffffffffffffffffffffffffffffffff1673ffffffffffffffffffffffffffffffffffffffff168152602001908152602001600020612671565b612332600360008473ffffffffffffffffffffffffffffffffffffffff1673ffffffffffffffffffffffffffffffffffffffff16815260200190815260200160002061259b565b816001600083815260200190815260200160002060006101000a81548173ffffffffffffffffffffffffffffffffffffffff021916908373ffffffffffffffffffffffffffffffffffffffff160217905550808273ffffffffffffffffffffffffffffffffffffffff168473ffffffffffffffffffffffffffffffffffffffff167fddf252ad1be2c89b69c2b068fc378daa952ba7f163c4a11628f55a4df523b3ef60405160405180910390a4505050565b600061243c6001600560008673ffffffffffffffffffffffffffffffffffffffff1673ffffffffffffffffffffffffffffffffffffffff1681526020019081526020016000208054905061269490919063ffffffff16565b9050600060066000848152602001908152602001600020549050818114151561252f576000600560008673ffffffffffffffffffffffffffffffffffffffff1673ffffffffffffffffffffffffffffffffffffffff168152602001908152602001600020838154811015156124ad57fe5b9060005260206000200154905080600560008773ffffffffffffffffffffffffffffffffffffffff1673ffffffffffffffffffffffffffffffffffffffff1681526020019081526020016000208381548110151561250757fe5b9060005260206000200181905550816006600083815260200190815260200160002081905550505b600560008573ffffffffffffffffffffffffffffffffffffffff1673ffffffffffffffffffffffffffffffffffffffff1681526020019081526020016000208054809190600190036125819190612799565b5050505050565b600080823b905060008111915050919050565b6001816000016000828254019250508190555050565b600073ffffffffffffffffffffffffffffffffffffffff166002600083815260200190815260200160002060009054906101000a900473ffffffffffffffffffffffffffffffffffffffff1673ffffffffffffffffffffffffffffffffffffffff1614151561266e5760006002600083815260200190815260200160002060006101000a81548173ffffffffffffffffffffffffffffffffffffffff021916908373ffffffffffffffffffffffffffffffffffffffff1602179055505b50565b6126896001826000015461269490919063ffffffff16565b816000018190555050565b60008282111515156126db576040517f08c379a00000000000000000000000000000000000000000000000000000000081526004016126d2906136df565b60405180910390fd5b600082840390508091505092915050565b60e06040519081016040528060008152602001600073ffffffffffffffffffffffffffffffffffffffff168152602001600061ffff168152602001600063ffffffff168152602001600063ffffffff168152602001600081526020016000151581525090565b608060405190810160405280600073ffffffffffffffffffffffffffffffffffffffff168152602001600061ffff168152602001600061ffff168152602001600081525090565b8154818355818111156127c0578183600052602060002091820191016127bf91906127c5565b5b505050565b6127e791905b808211156127e35760008160009055506001016127cb565b5090565b90565b60006127f68235613a4b565b905092915050565b600061280a8235613a5d565b905092915050565b600061281e8235613a6f565b905092915050565b60006128328235613a7b565b905092915050565b60006128468251613a7b565b905092915050565b600082601f830112151561286157600080fd5b813561287461286f826139a3565b613976565b9150808252602083016020830185838301111561289057600080fd5b61289b838284613b05565b50505092915050565b60006128b08235613aa7565b905092915050565b60006128c48235613ab5565b905092915050565b60006128d88235613abf565b905092915050565b6000602082840312156128f257600080fd5b6000612900848285016127ea565b91505092915050565b600080600080600060a0868803121561292157600080fd5b600061292f888289016127fe565b9550506020612940888289016128a4565b9450506040612951888289016128cc565b9350506060612962888289016128cc565b9250506080612973888289016128b8565b9150509295509295909350565b60008060006060848603121561299557600080fd5b60006129a3868287016127fe565b93505060206129b4868287016128b8565b92505060406129c5868287016128b8565b9150509250925092565b600080604083850312156129e257600080fd5b60006129f0858286016127ea565b9250506020612a01858286016127ea565b9150509250929050565b600080600060608486031215612a2057600080fd5b6000612a2e868287016127ea565b9350506020612a3f868287016127ea565b9250506040612a50868287016128b8565b9150509250925092565b60008060008060808587031215612a7057600080fd5b6000612a7e878288016127ea565b9450506020612a8f878288016127ea565b9350506040612aa0878288016128b8565b925050606085013567ffffffffffffffff811115612abd57600080fd5b612ac98782880161284e565b91505092959194509250565b60008060408385031215612ae857600080fd5b6000612af6858286016127ea565b9250506020612b0785828601612812565b9150509250929050565b60008060408385031215612b2457600080fd5b6000612b32858286016127ea565b9250506020612b43858286016128a4565b9150509250929050565b60008060008060808587031215612b6357600080fd5b6000612b71878288016127ea565b9450506020612b82878288016128a4565b9350506040612b93878288016128a4565b9250506060612ba4878288016128b8565b91505092959194509250565b600080600080600060a08688031215612bc857600080fd5b6000612bd6888289016127ea565b9550506020612be7888289016128a4565b9450506040612bf8888289016128cc565b9350506060612c09888289016128cc565b9250506080612c1a888289016128b8565b9150509295509295909350565b60008060408385031215612c3a57600080fd5b6000612c48858286016127ea565b9250506020612c59858286016128b8565b9150509250929050565b600060208284031215612c7557600080fd5b6000612c8384828501612826565b91505092915050565b600060208284031215612c9e57600080fd5b6000612cac8482850161283a565b91505092915050565b600080600060608486031215612cca57600080fd5b6000612cd8868287016128a4565b9350506020612ce9868287016128cc565b9250506040612cfa868287016128cc565b9150509250925092565b600060208284031215612d1657600080fd5b6000612d24848285016128b8565b91505092915050565b612d3681613acf565b82525050565b612d45816139e5565b82525050565b612d54816139f7565b82525050565b6000612d65826139cf565b808452612d79816020860160208601613b14565b612d8281613b47565b602085010191505092915050565b6000612d9b826139da565b808452612daf816020860160208601613b14565b612db881613b47565b602085010191505092915050565b6000602b82527f455243373231456e756d657261626c653a206f776e657220696e646578206f7560208301527f74206f6620626f756e64730000000000000000000000000000000000000000006040830152606082019050919050565b6000603282527f4552433732313a207472616e7366657220746f206e6f6e20455243373231526560208301527f63656976657220696d706c656d656e74657200000000000000000000000000006040830152606082019050919050565b6000602682527f4f776e61626c653a206e6577206f776e657220697320746865207a65726f206160208301527f64647265737300000000000000000000000000000000000000000000000000006040830152606082019050919050565b6000601c82527f4552433732313a20746f6b656e20616c7265616479206d696e746564000000006020830152604082019050919050565b6000602482527f4552433732313a207472616e7366657220746f20746865207a65726f2061646460208301527f72657373000000000000000000000000000000000000000000000000000000006040830152606082019050919050565b6000601982527f4552433732313a20617070726f766520746f2063616c6c6572000000000000006020830152604082019050919050565b6000601e82527f536166654d6174683a207375627472616374696f6e206f766572666c6f7700006020830152604082019050919050565b6000602c82527f4552433732313a206f70657261746f7220717565727920666f72206e6f6e657860208301527f697374656e7420746f6b656e00000000000000000000000000000000000000006040830152606082019050919050565b6000603882527f4552433732313a20617070726f76652063616c6c6572206973206e6f74206f7760208301527f6e6572206e6f7220617070726f76656420666f7220616c6c00000000000000006040830152606082019050919050565b6000602a82527f4552433732313a2062616c616e636520717565727920666f7220746865207a6560208301527f726f2061646472657373000000000000000000000000000000000000000000006040830152606082019050919050565b6000602982527f4552433732313a206f776e657220717565727920666f72206e6f6e657869737460208301527f656e7420746f6b656e00000000000000000000000000000000000000000000006040830152606082019050919050565b6000602082527f4552433732313a206d696e7420746f20746865207a65726f20616464726573736020830152604082019050919050565b6000602c82527f4552433732313a20617070726f76656420717565727920666f72206e6f6e657860208301527f697374656e7420746f6b656e00000000000000000000000000000000000000006040830152606082019050919050565b6000602082527f4f776e61626c653a2063616c6c6572206973206e6f7420746865206f776e65726020830152604082019050919050565b6000602982527f4552433732313a207472616e73666572206f6620746f6b656e2074686174206960208301527f73206e6f74206f776e00000000000000000000000000000000000000000000006040830152606082019050919050565b6000602f82527f4552433732314d657461646174613a2055524920717565727920666f72206e6f60208301527f6e6578697374656e7420746f6b656e00000000000000000000000000000000006040830152606082019050919050565b6000602182527f4552433732313a20617070726f76616c20746f2063757272656e74206f776e6560208301527f72000000000000000000000000000000000000000000000000000000000000006040830152606082019050919050565b6000603182527f4552433732313a207472616e736665722063616c6c6572206973206e6f74206f60208301527f776e6572206e6f7220617070726f7665640000000000000000000000000000006040830152606082019050919050565b6000602c82527f455243373231456e756d657261626c653a20676c6f62616c20696e646578206f60208301527f7574206f6620626f756e647300000000000000000000000000000000000000006040830152606082019050919050565b60e08201600082015161340560008501826134e1565b5060208201516134186020850182612d3c565b50604082015161342b60408501826134d2565b50606082015161343e60608501826134f0565b50608082015161345160808501826134f0565b5060a082015161346460a08501826134e1565b5060c082015161347760c0850182612d4b565b50505050565b6080820160008201516134936000850182612d3c565b5060208201516134a660208501826134d2565b5060408201516134b960408501826134d2565b5060608201516134cc60608501826134e1565b50505050565b6134db81613a03565b82525050565b6134ea81613a31565b82525050565b6134f981613a3b565b82525050565b60006020820190506135146000830184612d3c565b92915050565b600060808201905061352f6000830187612d2d565b61353c6020830186612d3c565b61354960408301856134e1565b818103606083015261355b8184612d5a565b905095945050505050565b600060608201905061357b6000830186612d3c565b6135886020830185612d2d565b61359560408301846134e1565b949350505050565b60006080820190506135b26000830187612d3c565b6135bf60208301866134d2565b6135cc60408301856134d2565b6135d960608301846134e1565b95945050505050565b60006020820190506135f76000830184612d4b565b92915050565b600060208201905081810360008301526136178184612d90565b905092915050565b6000602082019050818103600083015261363881612dc6565b9050919050565b6000602082019050818103600083015261365881612e23565b9050919050565b6000602082019050818103600083015261367881612e80565b9050919050565b6000602082019050818103600083015261369881612edd565b9050919050565b600060208201905081810360008301526136b881612f14565b9050919050565b600060208201905081810360008301526136d881612f71565b9050919050565b600060208201905081810360008301526136f881612fa8565b9050919050565b6000602082019050818103600083015261371881612fdf565b9050919050565b600060208201905081810360008301526137388161303c565b9050919050565b6000602082019050818103600083015261375881613099565b9050919050565b60006020820190508181036000830152613778816130f6565b9050919050565b6000602082019050818103600083015261379881613153565b9050919050565b600060208201905081810360008301526137b88161318a565b9050919050565b600060208201905081810360008301526137d8816131e7565b9050919050565b600060208201905081810360008301526137f88161321e565b9050919050565b600060208201905081810360008301526138188161327b565b9050919050565b60006020820190508181036000830152613838816132d8565b9050919050565b6000602082019050818103600083015261385881613335565b9050919050565b6000602082019050818103600083015261387881613392565b9050919050565b600060e08201905061389460008301846133ef565b92915050565b60006080820190506138af600083018461347d565b92915050565b60006060820190506138ca60008301866134d2565b6138d760208301856134f0565b6138e460408301846134f0565b949350505050565b600060208201905061390160008301846134e1565b92915050565b600060e08201905061391c600083018a6134e1565b6139296020830189612d3c565b61393660408301886134d2565b61394360608301876134f0565b61395060808301866134f0565b61395d60a08301856134e1565b61396a60c0830184612d4b565b98975050505050505050565b6000604051905081810181811067ffffffffffffffff8211171561399957600080fd5b8060405250919050565b600067ffffffffffffffff8211156139ba57600080fd5b601f19601f8301169050602081019050919050565b600081519050919050565b600081519050919050565b60006139f082613a11565b9050919050565b60008115159050919050565b600061ffff82169050919050565b600073ffffffffffffffffffffffffffffffffffffffff82169050919050565b6000819050919050565b600063ffffffff82169050919050565b6000613a5682613a11565b9050919050565b6000613a6882613a11565b9050919050565b60008115159050919050565b60007fffffffff0000000000000000000000000000000000000000000000000000000082169050919050565b600061ffff82169050919050565b6000819050919050565b600063ffffffff82169050919050565b6000613ada82613ae1565b9050919050565b6000613aec82613af3565b9050919050565b6000613afe82613a11565b9050919050565b82818337600083830152505050565b60005b83811015613b32578082015181840152602081019050613b17565b83811115613b41576000848401525b50505050565b6000601f19601f830116905091905056fea265627a7a723058208cc4fee46d7d846804ca784d3be36c82e3f1368d2fd2f9f553db31d317d9ba3a6c6578706572696d656e74616cf50037",
  "source": "pragma solidity >=0.4.21 <0.6.0;\npragma experimental ABIEncoderV2;\n\nimport \"../node_modules/openzeppelin-solidity/contracts/token/ERC721/ERC721Full.sol\";\nimport \"../node_modules/openzeppelin-solidity/contracts/ownership/Ownable.sol\";\n\ncontract Booking is ERC721Full, Ownable{\n\n    constructor(string memory name, string memory symbol) ERC721Full(name, symbol) public {\n   \n    }\n\n    struct reserveInfo {\n        uint id;\n        address restaurant;\n        uint16 seatNum;\n        uint32 yaerAndMonth;\n        uint32 time;\n        uint cost;\n        bool onSale;\n    }\n\n    struct seatInfo {\n        address restaurant;\n        uint16 seatNum;\n        uint16 capacity;\n        uint reservationFee;   \n    }\n\n    reserveInfo[] public reservesInfo;\n    mapping(bytes32 => reserveInfo) oneMonthSeatInfo;\n    mapping(address => mapping (uint16 => seatInfo)) public seatInformation;\n\n    uint tokenId = 1;\n    bytes32 hashForRegister = '';\n\n    function registerSeat(address payable _resutaurantAddress, uint16 _seatNum, uint32 _yaerAndMonth, uint32 _time, uint _cost) public{\n        super._mint(msg.sender, tokenId);\n        //reservesInfo.push(reserveInfo(tokenId, _resutaurantAddress, _seatNum, _yaerAndMonth, _time, _cost));\n        // hashForRegister = keccak256(abi.encode(_seatNum, _yaerAndMonth, _time));\n        // oneMonthSeatInfo[hashForRegister] = reserveInfo(tokenId, _resutaurantAddress, _seatNum, _yaerAndMonth, _time, _cost, false);\n        // _resutaurantAddress.transfer(_cost);\n        // tokenId++;\n    }\n\n    function onSale(address _resutaurantAddress, uint16 _seatNum, uint32 _yaerAndMonth, uint32 _time, uint _cost) public {\n        oneMonthSeatInfo[hashForRegister] = reserveInfo(tokenId, _resutaurantAddress, _seatNum, _yaerAndMonth, _time, _cost, true);\n        super.transferFrom(msg.sender, address(this), tokenId);\n    }\n\n    function buySeat(address payable _to, uint tokenId, uint _amount) public {\n        this.transferFrom(address(this), msg.sender, tokenId);\n        _to.transfer(_amount);\n    }\n\n    function getBackSeat(address payable _to, uint tokenId, uint _amount) public {\n        super.transferFrom(msg.sender, _to, tokenId);\n        _to.transfer(_amount);\n    }\n\n    function getoneMonthSeatInfo(uint16 _seatNum, uint32 _yaerAndMonth, uint32 _time) public view returns (reserveInfo memory) {\n        return oneMonthSeatInfo[keccak256(abi.encode(_seatNum, _yaerAndMonth, _time))];\n    }\n\n    function createSeat(address _restaurant, uint16 _seatNum, uint16 _capacity, uint reservationFee) public {\n        seatInformation[_restaurant][_seatNum] = seatInfo( _restaurant, _seatNum, _capacity, reservationFee);\n    }\n\n    function getSeatInfo(address _restaurant, uint16 _seatNum) public view returns (seatInfo memory) {\n        return seatInformation[_restaurant][_seatNum];\n    }\n}",
  "sourcePath": "/Users/yosuke.aramaki/Desktop/MyApps/CryptoTokyo17/backend/contracts/Booking.sol",
  "compiler": {
    "name": "solc",
    "version": "0.5.0+commit.1d4f565a.Emscripten.clang"
  },
  "schemaVersion": "3.0.0",
  "updatedAt": "2019-06-08T13:15:06.935Z",
  "devdoc": {
    "methods": {
      "approve(address,uint256)": {
        "details": "Approves another address to transfer the given token ID The zero address indicates there is no approved address. There can only be one approved address per token at a given time. Can only be called by the token owner or an approved operator.",
        "params": {
          "to": "address to be approved for the given token ID",
          "tokenId": "uint256 ID of the token to be approved"
        }
      },
      "balanceOf(address)": {
        "details": "Gets the balance of the specified address.",
        "params": {
          "owner": "address to query the balance of"
        },
        "return": "uint256 representing the amount owned by the passed address"
      },
      "getApproved(uint256)": {
        "details": "Gets the approved address for a token ID, or zero if no address set Reverts if the token ID does not exist.",
        "params": {
          "tokenId": "uint256 ID of the token to query the approval of"
        },
        "return": "address currently approved for the given token ID"
      },
      "isApprovedForAll(address,address)": {
        "details": "Tells whether an operator is approved by a given owner.",
        "params": {
          "operator": "operator address which you want to query the approval of",
          "owner": "owner address which you want to query the approval of"
        },
        "return": "bool whether the given operator is approved by the given owner"
      },
      "isOwner()": {
        "details": "Returns true if the caller is the current owner."
      },
      "name()": {
        "details": "Gets the token name.",
        "return": "string representing the token name"
      },
      "owner()": {
        "details": "Returns the address of the current owner."
      },
      "ownerOf(uint256)": {
        "details": "Gets the owner of the specified token ID.",
        "params": {
          "tokenId": "uint256 ID of the token to query the owner of"
        },
        "return": "address currently marked as the owner of the given token ID"
      },
      "renounceOwnership()": {
        "details": "Leaves the contract without owner. It will not be possible to call `onlyOwner` functions anymore. Can only be called by the current owner.     * > Note: Renouncing ownership will leave the contract without an owner, thereby removing any functionality that is only available to the owner."
      },
      "safeTransferFrom(address,address,uint256)": {
        "details": "Safely transfers the ownership of a given token ID to another address If the target address is a contract, it must implement `onERC721Received`, which is called upon a safe transfer, and return the magic value `bytes4(keccak256(\"onERC721Received(address,address,uint256,bytes)\"))`; otherwise, the transfer is reverted. Requires the msg.sender to be the owner, approved, or operator",
        "params": {
          "from": "current owner of the token",
          "to": "address to receive the ownership of the given token ID",
          "tokenId": "uint256 ID of the token to be transferred"
        }
      },
      "safeTransferFrom(address,address,uint256,bytes)": {
        "details": "Safely transfers the ownership of a given token ID to another address If the target address is a contract, it must implement `onERC721Received`, which is called upon a safe transfer, and return the magic value `bytes4(keccak256(\"onERC721Received(address,address,uint256,bytes)\"))`; otherwise, the transfer is reverted. Requires the msg.sender to be the owner, approved, or operator",
        "params": {
          "_data": "bytes data to send along with a safe transfer check",
          "from": "current owner of the token",
          "to": "address to receive the ownership of the given token ID",
          "tokenId": "uint256 ID of the token to be transferred"
        }
      },
      "setApprovalForAll(address,bool)": {
        "details": "Sets or unsets the approval of a given operator An operator is allowed to transfer all tokens of the sender on their behalf.",
        "params": {
          "approved": "representing the status of the approval to be set",
          "to": "operator address to set the approval"
        }
      },
      "supportsInterface(bytes4)": {
        "details": "See `IERC165.supportsInterface`.     * Time complexity O(1), guaranteed to always use less than 30 000 gas."
      },
      "symbol()": {
        "details": "Gets the token symbol.",
        "return": "string representing the token symbol"
      },
      "tokenByIndex(uint256)": {
        "details": "Gets the token ID at a given index of all the tokens in this contract Reverts if the index is greater or equal to the total number of tokens.",
        "params": {
          "index": "uint256 representing the index to be accessed of the tokens list"
        },
        "return": "uint256 token ID at the given index of the tokens list"
      },
      "tokenOfOwnerByIndex(address,uint256)": {
        "details": "Gets the token ID at a given index of the tokens list of the requested owner.",
        "params": {
          "index": "uint256 representing the index to be accessed of the requested tokens list",
          "owner": "address owning the tokens list to be accessed"
        },
        "return": "uint256 token ID at the given index of the tokens list owned by the requested address"
      },
      "tokenURI(uint256)": {
        "details": "Returns an URI for a given token ID. Throws if the token ID does not exist. May return an empty string.",
        "params": {
          "tokenId": "uint256 ID of the token to query"
        }
      },
      "totalSupply()": {
        "details": "Gets the total amount of tokens stored by the contract.",
        "return": "uint256 representing the total amount of tokens"
      },
      "transferFrom(address,address,uint256)": {
        "details": "Transfers the ownership of a given token ID to another address. Usage of this method is discouraged, use `safeTransferFrom` whenever possible. Requires the msg.sender to be the owner, approved, or operator.",
        "params": {
          "from": "current owner of the token",
          "to": "address to receive the ownership of the given token ID",
          "tokenId": "uint256 ID of the token to be transferred"
        }
      },
      "transferOwnership(address)": {
        "details": "Transfers ownership of the contract to a new account (`newOwner`). Can only be called by the current owner."
      }
    }
  },
  "userdoc": {
    "methods": {}
  }
}